:020000040800F2
:1000000000500020B13A0008753300087B33000827
:1000100000000000000000000000000000000000E0
:100020000000000000000000000000008133000814
:1000300000000000000000008B330008953300082A
:10004000013B0008013B0008A5330008013B000804
:10005000013B0008013B0008013B0008BD330008DC
:10006000013B0008013B0008013B0008013B000880
:10007000CD330008013B0008013B0008013B0008AC
:10008000013B0008013B0008013B000800000000A4
:10009000013B0008013B0008013B0008013B000850
:1000A000013B0008013B0008013B0008E533000864
:1000B000FD330008013B000800000000013B000880
:1000C00010B5064C2378002B07D1054B002B02D02E
:1000D000044800E000BF0123237010BD7000002021
:1000E00000000000B8820008044B10B5002B03D0BC
:1000F0000349044800E000BF10BDC04600000000F6
:1001000074000020B882000803B47146490840001A
:100110004900095E49008E4403BC70470022430831
:100120008B4274D303098B425FD3030A8B4244D3BF
:10013000030B8B4228D3030C8B420DD3FF22090201
:1001400012BA030C8B4202D31212090265D0030BC0
:100150008B4219D300E0090AC30B8B4201D3CB03B6
:10016000C01A5241830B8B4201D38B03C01A5241F8
:10017000430B8B4201D34B03C01A5241030B8B42FA
:1001800001D30B03C01A5241C30A8B4201D3CB02E5
:10019000C01A5241830A8B4201D38B02C01A5241CA
:1001A000430A8B4201D34B02C01A5241030A8B42CD
:1001B00001D30B02C01A5241CDD2C3098B4201D3E5
:1001C000CB01C01A524183098B4201D38B01C01A63
:1001D000524143098B4201D34B01C01A52410309DA
:1001E0008B4201D30B01C01A5241C3088B4201D389
:1001F000CB00C01A524183088B4201D38B00C01A36
:10020000524143088B4201D34B00C01A5241411A5C
:1002100000D20146524110467047FFE701B5002069
:1002200000F0F0F802BDC0460029F7D076E770472D
:1002300003460B437FD4002243088B4274D3030947
:100240008B425FD3030A8B4244D3030B8B4228D3E8
:10025000030C8B420DD3FF22090212BA030C8B420E
:1002600002D31212090265D0030B8B4219D300E0AE
:10027000090AC30B8B4201D3CB03C01A5241830B33
:100280008B4201D38B03C01A5241430B8B4201D3E3
:100290004B03C01A5241030B8B4201D30B03C01A0C
:1002A0005241C30A8B4201D3CB02C01A5241830A86
:1002B0008B4201D38B02C01A5241430A8B4201D3B5
:1002C0004B02C01A5241030A8B4201D30B02C01ADF
:1002D0005241CDD2C3098B4201D3CB01C01A524146
:1002E00083098B4201D38B01C01A524143098B42CF
:1002F00001D34B01C01A524103098B4201D30B01B8
:10030000C01A5241C3088B4201D3CB00C01A5241DC
:1003100083088B4201D38B00C01A524143088B42A1
:1003200001D34B00C01A5241411A00D2014652413A
:10033000104670475DE0CA0F00D04942031000D359
:100340004042534000229C4603098B422DD3030AAE
:100350008B4212D3FC22890112BA030A8B420CD3BE
:10036000890192118B4208D3890192118B4204D3E7
:1003700089013AD0921100E08909C3098B4201D367
:10038000CB01C01A524183098B4201D38B01C01AA1
:10039000524143098B4201D34B01C01A5241030918
:1003A0008B4201D30B01C01A5241C3088B4201D3C7
:1003B000CB00C01A524183088B4201D38B00C01A74
:1003C0005241D9D243088B4201D34B00C01A52414B
:1003D000411A00D20146634652415B10104601D3D8
:1003E0004042002B00D54942704763465B1000D362
:1003F000404201B5002000F005F802BD0029F8D008
:1004000016E770477047C046002B11D1002A0FD164
:10041000002900D1002802D00021C943081C07B4DC
:10042000024802A14018029003BDC046D9FFFFFF59
:1004300003B4684601B5029800F046F8019B9E4659
:1004400002B00CBC7047C046F0B515042D0C0F006F
:1004500001002E00C64684460004140C000C090C52
:1004600046434D43604361434019340C241800B5A2
:10047000A54203D98020400280464144250C6D18D6
:10048000614659437A43300449192404000C20186A
:10049000891880BCB846F0BD9E2110B5C905041C62
:1004A00000F03CFB002803D1201C00F0A1FA10BD95
:1004B0009E21201CC90500F0D3F800F099FA802392
:1004C0001B069C466044F2E7F0B557464E4645464B
:1004D000DE46E0B504000D009246994683B08B429B
:1004E00030D82DD04946504600F040FB2900060088
:1004F000200000F03BFB331A9846203B9B4633D448
:100500005A465346934042461F00534693401E00AE
:10051000AF423AD8AF4200D178E05B46A41BBD4160
:10052000002B00DA75E000220023009201930123E2
:100530005A4693400193012342469340009328E09A
:100540008242CFD900220023009201930C9B002B02
:1005500001D01C605D600098019903B0F0BCBB46FF
:10056000B246A946A046F0BD424620239B1A5246F9
:10057000DA40414613004A468A40170042461F436C
:10058000534693401E00AF42C4D90022002300927C
:1005900001934346002BD9D0FB0772081A43464605
:1005A0007B080EE0AB4201D1A2420CD8A41A9D41B7
:1005B000012024196D410021013E24184D41002ED7
:1005C00006D0AB42EED9013E24196D41002EF8D180
:1005D000009801995B4600196941002B24DB2B0030
:1005E0005A464446D3402A00E2401C005B461500B0
:1005F000002B2ADB26009E40330026004746BE40E3
:100600003200801A9941009001919FE7A342BCD823
:1006100083E74246202300219B1A00220091019289
:100620000122DA40019286E7424620239B1A2A00E3
:1006300046469A402300F340444613432A00E240D2
:100640001C005B461500002BD4DA42462F00202305
:10065000260097409B1ADE403B003343CDE7C0465F
:10066000F0B54646D6464F4643025B0ADA0094464A
:100670004A02C0B54400560A051CB046240E4E007E
:1006800092091F0020009246ED0F360EC90FFF2E73
:1006900000D17FE0012251408D4251D0A21B9146F2
:1006A000002A00DC7EE0002E00D199E0FF2C00D172
:1006B0008CE080235246DB041A4392464A460123CB
:1006C0001B2A08DC53462021D340891A52468A400F
:1006D000511E8A4113436246D31A5A0100D4F3E0F3
:1006E0009B019E09300000F023FA053886408442C1
:1006F00000DDF7E03200041B20200134E240041B3F
:10070000A64033005E1EB341002413435A0704D0B1
:100710000F221A40042A00D004335A0100D4D6E034
:10072000621CFE2C00D1DAE09B015F0AD0B2C0054A
:100730003843ED072843E0BCBA46B146A846F0BDB1
:10074000A21B9146002A63DD002E00D199E0FF2C08
:100750003CD080235246DB041A4392464A4601238A
:100760001B2A08DC53462021D340891A52468A406E
:10077000511E8A41134363445A0100D4A4E001345A
:10078000FF2C00D1ABE0012297491A405B080B40D7
:100790001343BBE7002A32D08D4235D0FF225242AC
:1007A0009146A1444A46002A51D0301B002C00D06B
:1007B0009CE06346002B00D1DFE00138002800D127
:1007C000F7E0FF2E00D099E00D004346002B00D14A
:1007D00085E08027FF031F437F02FF207F0AA6E7F3
:1007E0005246002A74D0012252429046C1444A46E1
:1007F000002A00D1C8E0FF2C00D05FE7E6E7012225
:100800005140A94200D049E7FF2252429146A144FB
:100810004A46002A43D0311B002C00D18CE0FF2E29
:1008200000D192E080236246DB041A439446012300
:100830001B2909DC202063466246CB40411A8A40CE
:100840001100481E81410B433400534494E7FE22BB
:10085000661C324264D1002C00D082E06346002B3B
:1008600000D1ABE05346002B00D160E7634652460F
:100870009B1A5A0100D4AAE0634652460D00D31ACF
:1008800044E75246002A23D0012252429046C144F6
:100890004A46002A75D0FF2C00D05FE796E7FE2677
:1008A0000134264253D1002872D16346002B00D177
:1008B00093E05346002B00D139E7634400245A01EA
:1008C00002D54A4A013413405A0700D020E7DB081A
:1008D000FF2C00D17AE75B025F0AE0B227E7FF2036
:1008E000002724E7414B241A33400FE7FF2E00D1A5
:1008F0006AE780236246DB041A43944601231B28DF
:1009000009DC202463466246C340201A824010005E
:10091000441EA041034352460D003400D31ADCE6C6
:10092000634652469E1A730117D4002E00D0D9E6B2
:10093000002500200027FAE66346002B44D0013949
:1009400000294CD0FF2E00D071E743463EE7FF2C34
:10095000C5D0524662445308B6E763460D00D61A26
:10096000C0E66246002A16D15346002B00D02BE782
:1009700080270025FF20FF03D9E60D004346340001
:10098000A6E753466344F7E6634652469B1AA4E63D
:100990006246002AD9D05246002A00D116E78022AA
:1009A000D203134200D111E74046104200D00DE7B8
:1009B0000AE752460D003400D31A8EE65346002B48
:1009C00008D00D004746B2E64346340080E7002BCE
:1009D00000D079E700250027A9E64746A7E6534659
:1009E00034006344C8E6C046FFFFFF7DFFFFFFFB06
:1009F00041024200C30F490A0020120E7E2A03D989
:100A00009D2A02D9094A98187047802000040143A2
:100A1000952A07DC9620821AD1404842002BF3D158
:100A20000800F1E7963A9140F7E7C046FFFFFF7FE5
:100A300070B5002813D0C317C5185D40C40F280037
:100A400000F076F89E2301001B1A962B0FDC082875
:100A500001DD08398D406D026D0AD8B202E0002434
:100A600000200025C0052843E407204370BD992BD2
:100A70000BDD05222E00121AD64002001B329540D3
:100A80002800451EA84135000543052901DD4A1F00
:100A900095402A00084E3240680709D00F202840B0
:100AA000042805D00432500102D59F2332405B1A3E
:100AB0009201550AD8B2D5E7FFFFFFFB8446081C18
:100AC0006146FFE71FB500F0D1F8002801D40021EE
:100AD000C8421FBD10B500F055F84042013010BDAE
:100AE00010B500F0C3F8002801DB002010BD012084
:100AF00010BDC04610B500F0B9F8002801DD002097
:100B000010BD012010BDC04610B500F063F80028EC
:100B100001DC002010BD012010BDC04610B500F062
:100B200059F8002801DA002010BD012010BDC04690
:100B30001C2101231B04984201D3000C10391B0A0D
:100B4000984201D3000A08391B09984201D30009D1
:100B5000043902A2105C40187047C0460403020228
:100B600001010101000000000000000010B5002993
:100B700003D1FFF7DDFF203002E0081CFFF7D8FFAC
:100B800010BDC04670B542004E024C0045026D0AD1
:100B9000120EC30F760A240EC90FFF2A0FD0FF2CA6
:100BA00011D00120A24200D070BDB542FCD18B42D1
:100BB0000DD0002AF8D12800451EA841F4E70120F5
:100BC000002DF1D1EBE70120002EEDD1E9E7002067
:100BD000EAE7C046F0B5420046024D024C00C30FA2
:100BE000760A120E6D0A240EC80FFF2A1FD0FF2CA2
:100BF00010D0002A1FD171427141002C01D1002D6B
:100C00001ED000290ED183421ED00221581E08405A
:100C10000138F0BD002D26D1002AF4D17142714176
:100C20000029F0D00028F4D101204042F1E7002E45
:100C300019D1FF2CEED0002CE5D1002DE3D1E4E753
:100C40000020002EE5D0E0E7A24205DCEADBAE4260
:100C500002D8E7D30020DCE741424141484202216B
:100C600008400138D5E702204042D2E7F0B5420003
:100C700046024D024C00C30F760A120E6D0A240E76
:100C8000C80FFF2A0DD0FF2C0FD0002A23D17142AC
:100C90007141002C0FD1002D0DD10020002E14D059
:100CA0000DE0002E10D1FF2C15D1002D0CD1002A03
:100CB00003D171427141002908D1834210D0022131
:100CC000581E0840013800E00220F0BD0028FCD189
:100CD00001204042F9E7002CEFD1002DEDD1EEE7E5
:100CE000A24205DCF2DBAE4202D8EFD30020ECE7F3
:100CF000414241414842022108400138E5E7C046EF
:100D000080B582B000AF3B00180008231A00002114
:100D100006F0ADFE304B314A1A602F4B0022DA63E9
:100D20002D4B802212065A602B4B00229A602A4BD0
:100D300007229A63284B01221A61274B0022DA60AE
:100D4000254B202200219954234B21220021995424
:100D5000214B00229A62204BC222FF325A621E4B64
:100D60002C22002199541C4B04225A611A4B002258
:100D70001A63194B00229A61174B00225A63164BD3
:100D80000022DA61144B180002F06CFF031E01D040
:100D900002F06CFA3B00124A1A603B0080225201BA
:100DA0005A603A000C4B1100180003F019FA031EA8
:100DB00001D002F05BFA3B000A4A1A603A00064B87
:100DC0001100180003F00CFA031E01D002F04EFAD5
:100DD000C046BD4602B080BDA800002000240140EE
:100DE000000004480000024480B582B000AF786083
:100DF0007B681B680A4A93420ED10A4B5A6B094B17
:100E0000802189000A435A63002200210C2003F04C
:100E1000A1FB0C2003F0B3FBC046BD4602B080BD71
:100E2000002401400010024080B586B000AF786019
:100E30007B681B681B6804221340042B11D17B685C
:100E4000180003F0F5F80100324B1B7B1A0089B241
:100E5000304B5200D1522F4B1B7B0133DAB22D4B5A
:100E60001A732C4B1B7B012B4FD92A4B00221A7370
:100E700000237B6100233B61264B1A88254B5B884E
:100E80009A4206D9234B5B887B61224B1B883B61CE
:100E900005E0204B1B887B611E4B5B883B611E4B32
:100EA0001B881A001D4B53433A6911001800FFF7C5
:100EB000BFF903001800FFF7BBFD021C154B9A6039
:100EC0000023FB607B69164A12889B1AFB60FB6853
:100ED00064225343FB60FB68124A12881100104AD7
:100EE00012888A1A11001800FFF7A2F90300FB60AC
:100EF000FB681E331A00074B5A60064B5B7B002BC6
:100F000003D07B68180003F021F8C046BD4606B048
:100F100080BDC046980000207800F81FE40C000057
:100F20007A00F81F7E00F81F90B589B000AF0C243E
:100F30003B19180014231A00002106F098FD3C4BC1
:100F4000DA6A3B4B01210A43DA62394BDB6A012240
:100F50001340BB60BB68364BDA6A354B04210A4349
:100F6000DA62334BDB6A042213407B607B68304BD0
:100F7000DA6A2F4B02210A43DA622D4BDB6A022226
:100F800013403B603B68A023DB05002213211800BF
:100F900003F018FDC0231B0126480022190003F0AE
:100FA00011FD3B1913221A603B1901225A603B19AB
:100FB00002229A603B190022DA603A19A023DB056D
:100FC0001100180003F080FB21007B18C0221201E1
:100FD0001A600C003B1901225A603B1902229A60E8
:100FE0003B190022DA603B19124A1900100003F085
:100FF0006BFB21007B1820221A607B18842292034D
:101000005A607B1801229A607A18A023DB05110030
:10101000180003F059FB00220021072003F09AFA80
:10102000072003F0ACFAC046BD4609B090BDC046EB
:10103000001002400004005080B582B000AF0200F2
:10104000BB1D1A80BB1D1B88202B09D1064B5B786A
:10105000002B05D0054B1B685B6A9AB2024B9A8045
:10106000C046BD4602B080BD80060020300300208F
:1010700080B500AF8C4A8D4B1000190004231A0074
:1010800006F0ECFC884B8A4A043311000522180054
:1010900006F0E4FC844B092286499B180C221800B8
:1010A00006F0DCFC804B152283499B1809221800AE
:1010B00006F0D4FC814A824B1000190038231A0034
:1010C00006F0CCFC7F4BB7229B5C180000F0C4FEFE
:1010D00003001900744B4D2299547A4BB8229B5C43
:1010E000180000F0B9FE030019006F4B4F2299540D
:1010F000754A764B1000190011231A0006F0AEFC59
:10110000704BB8229B5C180000F0A6FE030019008B
:10111000654B892299546E4A6E4B100019000E23BC
:101120001A0006F09BFC674BB8229B5C180000F08D
:1011300093FE030019005C4B972299545A4B9C2252
:1011400065499B180E22180006F088FC5D4BB822FA
:101150009B5C180000F080FE03001900524BA72290
:101160009954514BAA225D499B180C22180006F095
:1011700075FC544BB7229B5C180000F06DFE030019
:101180001900494BB3229954474BB62254499B1836
:101190000E22180006F062FC4A4BB7229B5C180036
:1011A00000F05AFE030019003F4BC12299543E4BF8
:1011B000C4224C499B181D22180006F04FFC414BDD
:1011C000B7229B5C180000F047FE03001900364B65
:1011D000CE229954344B1E2243499B180B221800EF
:1011E00006F03CFC304B292240499B180C22180089
:1011F00006F034FC2C4B35223D499B180E2218007A
:1012000006F02CFC284BE1223A499B180D221800CD
:1012100006F024FC244BEE2237499B180B221800C1
:1012200006F01CFC204A2623FF333449D318092238
:10123000180006F013FC1C4BF92231499B181822A8
:10124000180006F00BFC184A1223FF332D49D3185F
:101250001422180006F002FC2B4A2C4B1000190037
:1012600009231A0006F0FAFB294A2A4B100019003C
:101270000A231A0006F0F2FB274A284B1000190037
:1012800009231A0006F0EAFB254B0B222A2118003D
:1012900006F0EDFB234B0B222A21180006F0E7FB9A
:1012A000C046BD4680BDC04604010020D082000873
:1012B000D4820008DC820008E88200084701002090
:1012C000F48200084C020020830100202C830008D7
:1012D00093010020408300085083000860830008C9
:1012E0006C8300087C8300089C830008A8830008A6
:1012F000B4830008C4830008D4830008E083000896
:10130000EC830008048400083A02002018840008D6
:1013100042020020248400083202002030840008A9
:101320006A0200207502002080B500AF124B0C212C
:10133000180002F073FB00F0BBFBA023DB050122C9
:101340000121180003F03EFBFA23DB00180002F035
:1013500049FCA023DB0500220121180003F032FB29
:10136000064B07480822190000F0FCFB00F0BEFB0A
:10137000C046BD4680BDC0463C8400083A020020FD
:1013800060EA000080B582B000AF1D4B0D2118004F
:1013900002F044FB00F08CFBA023DB0501220121BD
:1013A000180003F00FFB174B180002F01BFCA023E2
:1013B000DB0500220121180003F004FB00237B6001
:1013C00014E01149FA23DB000922180000F0CAFBDF
:1013D0000E4BB5229B5C022B05D10D4B1121180041
:1013E00002F01CFB05E07B6801337B607B680E2B01
:1013F000E7DD00F07BFBC046BD4602B080BDC046C5
:101400004C84000888130000420200204C02002097
:101410005C84000880B500AF094B0A21180002F077
:10142000FDFAA023DB0501220221180003F0CAFA0D
:10143000FA239B00180002F0D5FBC046BD4680BDD4
:101440007084000880B500AF0B4B0B21180002F030
:10145000E5FAA023DB0500220221180003F0B2FA0E
:10146000FA239B00180002F0BDFB044BB6220121B9
:101470009954C046BD4680BD7C8400084C020020C3
:1014800090B5A1B020AF154BB6229B5C022B21D1A9
:10149000134B1721180002F0C1FA00F009FB114CA0
:1014A0000C231E93104B1D936B4618002300103322
:1014B0007422190006F0D2FA20686168A268E36815
:1014C00000F032FB084B09480C22190000F04AFBDF
:1014D00000F00CFBC046BD4601B090BD4C020020A0
:1014E000B0840008740400200D010020881300005F
:1014F00090B5A3B020AF1B4B0C21180002F08EFA60
:1015000000F0D6FA184C09231E93184B1D936B4616
:101510001800230010337422190006F09FFA206887
:101520006168A268E36800F0FFFA00237B600EE0C8
:101530000E49FA23DB000922180000F013FB0C4BC4
:10154000B4229B5C022B06D07B6801337B607B68F6
:10155000042BEDDD00E0C04600F0C8FAC046BD46F1
:1015600003B090BDC8840008740400201901002055
:101570004C02002090B5A3B020AF1B4B0C211800EB
:1015800002F04CFA00F094FA184C09231E93184B01
:101590001D936B461800230010337422190006F0C7
:1015A0005DFA20686168A268E36800F0BDFA002374
:1015B0007B600EE00E49FA23DB000922180000F0E0
:1015C000D1FA0C4BB4229B5C022B06D07B68013312
:1015D0007B607B68042BEDDD00E0C04600F086FAFE
:1015E000C046BD4603B090BDD884000874040020F6
:1015F000290200204C02002090B5A3B020AF1B4B65
:101600001321180002F00AFA00F052FA184C3C2399
:101610001E93184B1D936B46180023001033742241
:10162000190006F01BFA20686168A268E36800F000
:101630007BFA00237B600EE00E49FA23DB003C229C
:10164000180000F08FFA0C4BB4229B5C022B06D0E2
:101650007B6801337B607B68042BEDDD00E0C046D6
:1016600000F044FAC046BD4603B090BDE8840008CF
:1016700074040020470100204C02002090B5A3B064
:1016800020AF1B4B1521180002F0C8F900F010FA2A
:10169000184C10231E93184B1D936B461800230003
:1016A00010337422190006F0D9F920686168A26825
:1016B000E36800F039FA00237B600EE00E49FA235C
:1016C000DB001022180000F04DFA0C4BB4229B5C9A
:1016D000022B06D07B6801337B607B68042BEDDD39
:1016E00000E0C04600F002FAC046BD4603B090BD1F
:1016F000FC84000874040020830100204C020020B8
:1017000090B5A3B020AF1B4B0621180002F086F95C
:1017100000F0CEF9184C04231E93184B1D936B4612
:101720001800230010337422190006F097F920687E
:101730006168A268E36800F0F7F900237B600EE0BF
:101740000E49FA23DB000422180000F00BFA0C4BC0
:10175000B4229B5C022B06D07B6801337B607B68E4
:10176000042BEDDD00E0C04600F0C0F9C046BD46E8
:1017700003B090BD1485000874040020040100200B
:101780004C02002090B5A3B020AF1B4B14211800D1
:1017900002F044F900F08CF9184C0E231E93184BFC
:1017A0001D936B461800230010337422190006F0B5
:1017B00055F920686168A268E36800F0B5F9002374
:1017C0007B600EE00E49FA23DB000E22180000F0C9
:1017D000C9F90C4BB4229B5C022B06D07B68013309
:1017E0007B607B68042BEDDD00E0C04600F07EF9F5
:1017F000C046BD4603B090BD1C850008740400209F
:10180000A00100204C02002090B5A3B020AF1B4BDC
:101810000C21180002F002F900F04AF9184C0C23D0
:101820001E93184B1D936B4618002300103374222F
:10183000190006F013F920686168A268E36800F0F7
:1018400073F900237B600EE00E49FA23DB000C22C3
:10185000180000F087F90C4BB4229B5C022B06D0D9
:101860007B6801337B607B68042BEDDD00E0C046C4
:1018700000F03CF9C046BD4603B090BD3485000879
:1018800074040020AE0100204C02002090B5A3B0EB
:1018900020AF1B4B0D21180002F0C0F800F008F932
:1018A000184C0E231E93184B1D936B4618002300F3
:1018B00010337422190006F0D1F820686168A2681C
:1018C000E36800F031F900237B600EE00E49FA2353
:1018D000DB000E22180000F045F90C4BB4229B5C93
:1018E000022B06D07B6801337B607B68042BEDDD27
:1018F00000E0C04600F0FAF8C046BD4603B090BD17
:101900004485000874040020BA0100204C02002025
:1019100090B5A3B020AF1B4B1121180002F07EF848
:1019200000F0C6F8184C1D231E93184B1D936B46F0
:101930001800230010337422190006F08FF8206875
:101940006168A268E36800F0EFF800237B600EE0B6
:101950000E49FA23DB001D22180000F003F90C4B9E
:10196000B4229B5C022B06D07B6801337B607B68D2
:10197000042BEDDD00E0C04600F0B8F8C046BD46DF
:1019800003B090BD5485000874040020C8010020F5
:101990004C02002090B5A3B020AF1E4B0C211800C4
:1019A00002F03CF81C4B00221A7200F081F81B4C2C
:1019B00080231E931A4B1D936B461800230010338F
:1019C0007422190006F04AF820686168A268E3688A
:1019D00000F0AAF800237B6012E01249FA23DB0032
:1019E0000822180000F0BEF80F4BB4229B5C022BBB
:1019F00003D1094B0022DA7105E07B6801337B607B
:101A00007B68092BE9DD00F071F8C046BD4603B0E4
:101A100090BDC046688500089C0700207404002023
:101A200080020020320200204C02002090B5A3B0BA
:101A300020AF1B4B0F21180001F0F0FF00F038F829
:101A4000184C0D231E93184B1D936B461800230052
:101A500010337422190006F001F820686168A2684A
:101A6000E36800F061F800237B600EE00E49FA2382
:101A7000DB000D22180000F075F80C4BB4229B5CC3
:101A8000022B06D07B6801337B607B68042BEDDD85
:101A900000E0C04600F02AF8C046BD4603B090BD45
:101AA0007885000874040020930100204C02002077
:101AB00080B500AF0C4A81235B000021D1540A4A53
:101AC0000223FF330021D15480235A00064B2A21E0
:101AD000180005F0CCFF044A81235B000121D1549A
:101AE000C046BD4680BDC046F804002080B500AFAA
:101AF0000C4A81235B000021D15480235A00094BFA
:101B00002A21180005F0B3FF064A0223FF33002103
:101B1000D154044A81235B000021D154C046BD4604
:101B200080BDC046F804002084B0B0B500AF1025D9
:101B30007C1920606160A260E360882310229446D3
:101B4000BC4463441B789AB201235B429421791808
:101B50000968781904F010FCC046BD46B0BC08BC4A
:101B600004B0184780B586B000AFF860B960FB1DBF
:101B70001A70634BB42201219954614BB5220121A3
:101B80009954FB68180002F02DF85E4BC421180030
:101B900001F044FF00F018F9594BB4229B5C012B73
:101BA00005D1594B0D21180001F038FF31E0544B9D
:101BB000B4229B5C022B09D1514BB62202219954CD
:101BC000524B0C21180001F029FF22E04C4BB422AB
:101BD0009B5C032B09D14A4BB622022199544C4BF2
:101BE0000E21180001F01AFF13E0454BB4229B5C54
:101BF000042B09D1424BB62202219954454B0E21A8
:101C0000180001F00BFF04E0434B1221180001F013
:101C100005FFBA68414B9A4216D1394BB4229B5CFE
:101C2000022B11D100237B610BE07B690A33354A1B
:101C3000D15C334A7B69D3180A1C1A707B69013363
:101C40007B617B690E2BF0DDBA68354B9A4217D168
:101C50002B4BB4229B5C022B12D100233B610CE086
:101C60003B690A33274AD15C254A3B69D3180F33B5
:101C70000A1C1A703B6901333B613B690E2BEFDD97
:101C8000BA68284B9A4216D1274B0422190000202B
:101C900000F05AF8031E0ED0194BB52203219954B7
:101CA000224B01221A72214B00225A72204B14211E
:101CB000180001F0B3FEBA681E4B9A4207D0BA680A
:101CC0001D4B9A4203D0BA681C4B9A4214D11C4B4C
:101CD00004221900002000F037F8031E0CD0084B36
:101CE000B52202219954064BB62201219954154B75
:101CF0001421180001F092FEC046BD4606B080BD1A
:101D00004C020020F804002088850008988500080F
:101D1000A4850008B4850008C485000819010020C6
:101D20002902002093010020D88500089C0700208C
:101D3000E08500080D0100203A0200204202002048
:101D4000F4850008FC85000880B584B000AF3960D8
:101D50001100FB1D021C1A70BB1D0A1C1A700F23F8
:101D6000FB1800221A70FB1D1B78BB6021E0154A8E
:101D7000BB68D3181A780F203B181B783968CB182A
:101D80001B789A4205D13B181A783B1801321A7019
:101D900003E00F23FB1800221A700F23FA18BB1D53
:101DA00012781B789A4201D1012306E0BB68013307
:101DB000BB60BB68FF2BDAD900231800BD4604B016
:101DC00080BDC046F804002080B584B000AF1E4B33
:101DD000B422012199540C203B181C4A1188198007
:101DE00092789A703B1D1A4A1168196092889A80FD
:101DF0003B00184A1A603B18022219000020FFF726
:101E0000A3FF031E03D0104BB422022199543B1DA3
:101E1000052219000020FFF797FF031E03D00A4B8D
:101E2000B422032199543B00032219000020FFF73C
:101E30008BFF031E03D0044BB42204219954C046E7
:101E4000BD4604B080BDC0464C0200201486000888
:101E5000188600085244590080B584B000AF0200D3
:101E6000FB1D1A700F23FB1831221A70FB1D1B7803
:101E7000092B36D89A001F4BD3181B689F460F2397
:101E8000FB1830221A702DE00F23FB1831221A7034
:101E900028E00F23FB1832221A7023E00F23FB18CF
:101EA00033221A701EE00F23FB1834221A7019E037
:101EB0000F23FB1835221A7014E00F23FB1836226B
:101EC0001A700FE00F23FB1837221A700AE00F2355
:101ED000FB1838221A7005E00F23FB1839221A70FC
:101EE00000E0C0460F23FB181B781800BD4604B065
:101EF00080BDC0464C87000880B500AF01F002FEEF
:101F000000F042F8FFF710F801F0B6F901F0BEFA60
:101F100001F040FB01F06EFBFEF7F2FE01F020FC49
:101F200001F024FD134B180001F05CFE124B092157
:101F3000180001F073FD114B0B21180001F06EFD2C
:101F4000FA239B00180001F04DFE0D4B1B78002B6F
:101F500001D000F095F80A4B00221A70094B0A21B3
:101F6000180001F05BFD01F061FE0121012002F08B
:101F700071FDE0E788130000208600082C86000829
:101F8000080300203886000890B59DB000AF3824C3
:101F90003B19180038231A00002105F068FD24239E
:101FA000FB18180014231A00002105F060FD3B0007
:101FB000180024231A00002105F059FD2D4B1B6841
:101FC0002D4A1A402B4B802109010A431A6002F066
:101FD00033FD2A4B1A6D294B27490A401A653B19D4
:101FE00006221A603B19802252009A603B19012296
:101FF000DA603B1910221A613B1900229A623B19E0
:10200000180002F083FD031E01D001F02FF92421F6
:102010007B180F221A607B1801225A607B1800225D
:102020009A607B180022DA607B1800221A617B1804
:102030000021180003F03EF9031E01D001F016F94B
:102040003B0023221A603B0000229A603B000022E2
:10205000DA603B00802252025A603B00180003F015
:102060004DFB031E01D001F001F9C046BD461DB075
:1020700090BDC04600700040FFE7FFFF0010024027
:1020800080B500AFC04B0721180001F0C7FCBF4B63
:1020900001225A73BE4B0A21180001F0BFFCBD4B50
:1020A000180001F053FFBC4B180001F09BFDB74B2B
:1020B0009B68181CFEF7F0F903009AB2B74B5A80E0
:1020C000B24B5B68DAB2B54B1A71B44B1B79642B17
:1020D00009D9B24B1B7964211800FEF7A5F80B0053
:1020E000DAB2AE4B1A71AE4B0B21180001F096FC20
:1020F000A64B00225A73A94B9B79002B0CD0A74BFF
:102100005B790133DAB2A54B5A71A44B5B79022B90
:1021100002D9A24B00229A71A04B5B7A0133DAB24A
:102120009E4B5A729D4B5B7A052B02D99B4B00222A
:102130005A729A4B9B79002B05D09A4B11211800AB
:1021400001F06CFC04E0984B1221180001F066FCD1
:10215000924BDB79002B05D0944B1421180001F031
:102160005DFC04E0924B1621180001F057FC8B4BEC
:102170001B7A002B05D08F4B1021180001F04EFC6C
:1021800004E08D4B1121180001F048FC834B1B78B3
:10219000002B14D0814B1B794F2B10D87F4B9B7990
:1021A000002B0CD17D4BDB79012B03D17B4B1B78B2
:1021B000062B04D0794B1B7A012B00D0D3E0774B50
:1021C00000221A70FEF754FF01F030FBFA239B0047
:1021D000180001F007FD01F073FBFA239B001800C3
:1021E00001F000FD01F03AFBFA239B00180001F01A
:1021F000F9FC724B0C21180001F010FC674B1B7AA4
:10220000002B1ED1FFF706F9FA239B00180001F0FE
:10221000E9FCFFF789F8FA239B00180001F0E2FCC3
:10222000674BB5229B5C022B0BD1664B0E2118002D
:1022300001F0F4FBFFF778F8FA239B00180001F097
:10224000D1FC564B0122DA71FFF75AFAFA239B00B0
:10225000180001F0C7FCFFF74BF9FA239B001800A8
:1022600001F0C0FCFFF786F9FA239B00180001F08B
:10227000B9FC00F0ABF8FA239B00180001F0B2FCA7
:10228000FFF746FBFA239B00180001F0ABFCFFF7B9
:10229000BBFAFA239B00180001F0A4FCFFF7ACF98D
:1022A000FA239B00180001F09DFCFFF7E7F9FA23E1
:1022B0009B00180001F096FCFFF76CFBFA239B00D3
:1022C000180001F08FFCFFF7B1FBFA239B00180008
:1022D00001F088FCFFF756FAFA239B00180001F082
:1022E00081FCFFF7D3FAFA239B00180001F07AFC77
:1022F0002A4B1B7A002B0FD1FFF744F8FA239B00DF
:10230000180001F06FFCFFF7BBF8FA239B001800E0
:1023100001F068FCFFF796F82B4B0B21180001F039
:102320007DFB274BB7229B5C0133D9B2244BB722EC
:102330009954234BB8229B5C0133D9B2204BB8226D
:1023400099541F4BB7229B5C082B03D91C4BB72217
:10235000012199541A4BB7229B5C082B03D9184BC7
:10236000B822002199540D4B1B780133DAB20B4B84
:102370001A700A4B1B78172B02D9084B00221A70CF
:10238000C046BD4680BDC046448600089800002077
:102390004C860008A8000020B80B00009C07002015
:1023A0005886000864860008788600088C86000835
:1023B000A4860008BC860008D0860008E4860008D1
:1023C0004C020020F48600080487000890B585B010
:1023D00000AF864B80222A21180005F048FB844B71
:1023E0000D21180001F01AFB824B3422552199541B
:1023F000804B35224C2199547E4B362254219954DE
:102400007C4B3722232199540423FB6011E0FB68A5
:1024100030331A00774BD318181DFB68043B754AFC
:10242000D35C1A00744B190005F02AFBFB680133DA
:10243000FB60FB68122BEADD6E4B47222321995487
:102440006E4B1B791A00FA2399001000FDF7D6FF96
:102450000B00DBB21C00694B1B7964211800FDF7EF
:10246000E3FE0B00DBB2E31A64211800FDF7E0FE87
:1024700003001A006249634B180005F001FB5F4B33
:102480001B7964211800FDF7CFFE0B00DBB21C00A6
:102490005A4B1B790A211800FDF7C6FE0B00DBB270
:1024A000E31A0A211800FDF7C3FE03001A0054497D
:1024B000554B180005F0E4FA504B1B790A2118001F
:1024C000FDF7B2FE0B00DBB21A004D494F4B18006E
:1024D00005F0D6FA474B4B2223219954474B5B8892
:1024E0001C00464B5B88FA2291001800FDF79CFE09
:1024F0000B009BB2E31AFA2291001800FDF798FE38
:1025000003001A003E49424B180005F0B9FA3B4B54
:102510005B88FA2291001800FDF786FE0B009BB243
:102520001C00364B5B8864211800FDF77DFE0B0014
:102530009BB2E31A64211800FDF77AFE03001A002B
:102540002F49344B180005F09BFA2C4B5B88642113
:102550001800FDF769FE0B009BB21C00274B5B883F
:102560000A211800FDF760FE0B009BB2E31A0A2156
:102570001800FDF75DFE03001A002149264B1800E4
:1025800005F07EFA1D4B5B880A211800FDF74CFE12
:102590000B009BB21A001A49204B180005F070FA84
:1025A000144B5022232199540023BB6013E0BB68D5
:1025B0001D3330331A000F4BD318181D0D4ABB685A
:1025C000D3181E331B781A000B4B190005F058FA6C
:1025D000BB680133BB60BB680A2BE8DD054B5C229E
:1025E0002321995400237B602FE0C0468002002005
:1025F000108700084C020020208700089C0700205C
:1026000024870008940200209502002096020020F2
:1026100098020020990200209A0200209B020020CC
:102620007B68293330331A00ED4BD318181DEC4A60
:1026300029217B68D3185B181B781A00E94B190015
:1026400005F01EFA7B6801337B607B680A2BE7DDAF
:10265000E34B682223219954E34BDB88E3491800BC
:10266000FDF7CCFE0B009BB21C00DF4BDB88E04982
:102670001800FDF7D9FD0B009BB2E31ADC491800E6
:10268000FDF7D6FD03001A00DA49DB4B180005F010
:10269000F7F9D54BDB88D6491800FDF7C5FD0B00CF
:1026A0009BB21C00D04BDB88FA2291001800FDF78A
:1026B000BBFD0B009BB2E31AFA2291001800FDF754
:1026C000B7FD03001A00CB49CC4B180005F0D8F930
:1026D000C54BDB88FA2291001800FDF7A5FD0B0021
:1026E0009BB21C00C04BDB8864211800FDF79CFDE9
:1026F0000B009BB2E31A64211800FDF799FD03005B
:102700001A00BC49BE4B180005F0BAF9B64BDB887D
:1027100064211800FDF788FD0B009BB21C00B24B32
:10272000DB880A211800FDF77FFD0B009BB2E31A3E
:102730000A211800FDF77CFD03001A00AD49B14BDA
:10274000180005F09DF9A84BDB880A211800FDF759
:102750006BFD0B009BB21A00A649AB4B180005F0AD
:102760008FF99F4B6E22232199549F4B1B899F49C0
:102770001800FDF743FE0B009BB21C009A4B1B890F
:102780009B491800FDF750FD0B009BB2E31A9849D6
:102790001800FDF74DFD03001A0096499B4B1800E9
:1027A00005F06EF9904B1B8991491800FDF73CFD2F
:1027B0000B009BB21C008C4B1B89FA229100180065
:1027C000FDF732FD0B009BB2E31AFA2291001800CC
:1027D000FDF72EFD03001A0086498D4B180005F009
:1027E0004FF9814B1B89FA2291001800FDF71CFD5F
:1027F0000B009BB21C007C4B1B8964211800FDF769
:1028000013FD0B009BB2E31A64211800FDF710FDC5
:1028100003001A0077497F4B180005F031F9724B1D
:102820001B8964211800FDF7FFFC0B009BB21C0004
:102830006D4B1B890A211800FDF7F6FC0B009BB2BB
:10284000E31A0A211800FDF7F3FC03001A00694996
:10285000714B180005F014F9634B1B890A2118000D
:10286000FDF7E2FC0B009BB21A0062496B4B1800AB
:1028700005F006F95A4B7422232199545A4B5B896F
:102880005A491800FDF7BAFD0B009BB21C00564BCD
:102890005B8957491800FDF7C7FC0B009BB2E31A90
:1028A00053491800FDF7C4FC03001A0051495C4B62
:1028B000180005F0E5F84C4B5B894D491800FDF711
:1028C000B3FC0B009BB21C00474B5B89FA229100C2
:1028D0001800FDF7A9FC0B009BB2E31AFA22910045
:1028E0001800FDF7A5FC03001A0042494D4B1800E3
:1028F00005F0C6F83C4B5B89FA2291001800FDF701
:1029000093FC0B009BB21C00374B5B8964211800C1
:10291000FDF78AFC0B009BB2E31A64211800FDF757
:1029200087FC03001A0033493F4B180005F0A8F854
:102930002D4B5B8964211800FDF776FC0B009BB2E0
:102940001C00294B5B890A211800FDF76DFC0B0068
:102950009BB2E31A0A211800FDF76AFC03001A0073
:102960002449324B180005F08BF81F4B5B890A2174
:102970001800FDF759FC0B009BB21A001D492C4BA7
:10298000180005F07DF8164B7A2223219954164B36
:102990009B8916491800FDF731FD0B009BB21C0006
:1029A000114B9B8912491800FDF73EFC0B009BB2AE
:1029B000E31A0F491800FDF73BFC03001A000D490C
:1029C0001C4B180005F05CF8074B9B890849180060
:1029D000FDF72AFC0B009BB21C00034B9B892BE0EC
:1029E0004C0200202087000880060020A0860100FD
:1029F0001027000024870008B5020020B60200203E
:102A0000B7020020B8020020B9020020BB0200205B
:102A1000BC020020BD020020BE020020BF02002038
:102A2000C1020020C2020020C3020020C402002014
:102A3000C5020020C7020020FA2291001800FDF70D
:102A4000F3FB0B009BB2E31AFA2291001800FDF78A
:102A5000EFFB03001A00EE49EE4B180005F010F8EA
:102A6000ED4B9B89FA2291001800FDF7DDFB0B006E
:102A70009BB21C00E84B9B8964211800FDF7D4FB36
:102A80000B009BB2E31A64211800FDF7D1FB030091
:102A90001A00DF49E14B180004F0F2FFDE4B9B897E
:102AA00064211800FDF7C0FB0B009BB21C00DA4B41
:102AB0009B890A211800FDF7B7FB0B009BB2E31AB4
:102AC0000A211800FDF7B4FB03001A00D049D44BCB
:102AD000180004F0D5FFD04B9B890A211800FDF7A0
:102AE000A3FB0B009BB21A00C949CE4B180004F09F
:102AF000C7FFCD4B802223219954C74BDB89CB499B
:102B00001800FDF77BFC0B009BB21C00C24BDB895D
:102B1000C7491800FDF788FB0B009BB2E31AC449B4
:102B20001800FDF785FB03001A00B949C14B1800D6
:102B300004F0A6FFB84BDB89BD491800FDF774FB14
:102B40000B009BB21C00B44BDB89FA2291001800E9
:102B5000FDF76AFB0B009BB2E31AFA229100180002
:102B6000FDF766FB03001A00A949B34B180004F0F7
:102B700087FFA94BDB89FA2291001800FDF754FB6F
:102B80000B009BB21C00A44BDB8964211800FDF7ED
:102B90004BFB0B009BB2E31A64211800FDF748FBC6
:102BA00003001A009A49A54B180004F069FF9A4BDC
:102BB000DB8964211800FDF737FB0B009BB21C007A
:102BC000954BDB890A211800FDF72EFB0B009BB209
:102BD000E31A0A211800FDF72BFB03001A008C49A9
:102BE000974B180004F04CFF8B4BDB890A2118002F
:102BF000FDF71AFB0B009BB21A008549914B180098
:102C000004F03EFF884B862223219954824B1B8A75
:102C100086491800FDF7F2FB0B009BB21C007E4BAF
:102C20001B8A83491800FDF7FFFA0B009BB2E31AD9
:102C30007F491800FDF7FCFA03001A007449824B23
:102C4000180004F01DFF744B1B8A79491800FDF72A
:102C5000EBFA0B009BB21C006F4B1B8AFA2291000F
:102C60001800FDF7E1FA0B009BB2E31AFA2291007B
:102C70001800FDF7DDFA03001A006549734B1800D0
:102C800004F0FEFE644B1B8AFA2291001800FDF747
:102C9000CBFA0B009BB21C005F4B1B8A642118000F
:102CA000FDF7C2FA0B009BB2E31A64211800FDF78E
:102CB000BFFA03001A005649654B180004F0E0FE05
:102CC000554B1B8A64211800FDF7AEFA0B009BB22E
:102CD0001C00514B1B8A0A211800FDF7A5FA0B00B6
:102CE0009BB2E31A0A211800FDF7A2FA03001A00AA
:102CF0004749584B180004F0C3FE474B1B8A0A2172
:102D00001800FDF791FA0B009BB21A004049524B94
:102D1000180004F0B5FE444B8C22232199543E4BFD
:102D20005B8A42491800FDF769FB0B009BB21C004F
:102D3000394B5B8A3E491800FDF776FA0B009BB2CF
:102D4000E31A3B491800FDF773FA03001A003049F3
:102D5000424B180004F094FE2F4B5B8A3449180054
:102D6000FDF762FA0B009BB21C002B4B5B8AFA2228
:102D700091001800FDF758FA0B009BB2E31AFA22F3
:102D800091001800FDF754FA03001A002049344B53
:102D9000180004F075FE204B5B8AFA22910018009F
:102DA000FDF742FA0B009BB21C001B4B5B8A6421AF
:102DB0001800FDF739FA0B009BB2E31A64211800E2
:102DC000FDF736FA03001A001149264B180004F0EB
:102DD00057FE114B5B8A64211800FDF725FA0B00A2
:102DE0009BB21C000C4B5B8A0A211800FDF71CFAF1
:102DF0000B009BB2E31A0A211800FDF719FA030031
:102E00001A000349184B180004F03AFE2EE0C046A1
:102E100024870008C802002080060020C902002084
:102E2000CA020020CB0200204C020020A086010034
:102E300010270000CD020020CE020020CF0200208B
:102E4000D0020020D1020020D3020020D4020020B2
:102E5000D5020020D6020020D7020020D90200208F
:102E6000DA020020DB020020DC020020D74B5B8A64
:102E70000A211800FDF7D8F90B009BB21A00D449BB
:102E8000D44B180004F0FCFDD34B9222232199541B
:102E9000CE4B9B8AD1491800FDF7B0FA0B009BB2CC
:102EA0001C00CA4B9B8ACE491800FDF7BDF90B00E8
:102EB0009BB2E31ACA491800FDF7BAF903001A00D9
:102EC000C349C84B180004F0DBFDC04B9B8AC449C2
:102ED0001800FDF7A9F90B009BB21C00BB4B9B8AA5
:102EE000FA2291001800FDF79FF90B009BB2E31A3C
:102EF000FA2291001800FDF79BF903001A00B4496B
:102F0000B94B180004F0BCFDB04B9B8AFA2291002B
:102F10001800FDF789F90B009BB21C00AB4B9B8A94
:102F200064211800FDF780F90B009BB2E31A6421BD
:102F30001800FDF77DF903001A00A549AB4B1800F6
:102F400004F09EFDA14B9B8A64211800FDF76CF9EB
:102F50000B009BB21C009D4B9B8A0A211800FDF7B9
:102F600063F90B009BB2E31A0A211800FDF760F920
:102F700003001A0096499E4B180004F081FD934B04
:102F80009B8A0A211800FDF74FF90B009BB21A002B
:102F90008F49984B180004F073FD8F4B9822232122
:102FA00099548A4BDB8A8D491800FDF727FA0B00EC
:102FB0009BB21C00854BDB8A89491800FDF734F968
:102FC0000B009BB2E31A86491800FDF731F90300A4
:102FD0001A007F49884B180004F052FD7B4BDB8AB6
:102FE0007F491800FDF720F90B009BB21C00774BBE
:102FF000DB8AFA2291001800FDF716F90B009BB24C
:10300000E31AFA2291001800FDF712F903001A00E2
:103010006F497A4B180004F033FD6C4BDB8AFA22BF
:1030200091001800FDF700F90B009BB21C00674BE4
:10303000DB8A64211800FDF7F7F80B009BB2E31A56
:1030400064211800FDF7F4F803001A0060496C4B86
:10305000180004F015FD5D4BDB8A64211800FDF7B4
:10306000E3F80B009BB21C00584BDB8A0A211800C6
:10307000FDF7DAF80B009BB2E31A0A211800FDF7FE
:10308000D7F803001A0052495E4B180004F0F8FC10
:103090004E4BDB8A0A211800FDF7C6F80B009BB2E5
:1030A0001A004B49584B180004F0EAFC4A4B9E2288
:1030B00023219954454B1B8B48491800FDF79EF975
:1030C0000B009BB21C00414B1B8B45491800FDF7C0
:1030D000ABF80B009BB2E31A41491800FDF7A8F8C2
:1030E00003001A003A49494B180004F0C9FC374B59
:1030F0001B8B3B491800FDF797F80B009BB21C0097
:10310000324B1B8BFA2291001800FDF78DF80B0053
:103110009BB2E31AFA2291001800FDF789F8030028
:103120001A002B493A4B180004F0AAFC274B1B8BC2
:10313000FA2291001800FDF777F80B009BB21C00F3
:10314000224B1B8B64211800FDF76EF80B009BB21D
:10315000E31A64211800FDF76BF803001A001C49FC
:103160002C4B180004F08CFC184B1B8B64211800AE
:10317000FDF75AF80B009BB21C00144B1B8B0A2165
:103180001800FDF751F80B009BB2E31A0A21180052
:10319000FDF74EF803001A000D491F4B180004F00C
:1031A0006FFC0A4B1B8B0A211800FDF73DF80B0042
:1031B0009BB21A000649194B180004F061FC064B3B
:1031C000A4222321995471233B603CE08006002017
:1031D00024870008DD0200204C020020A0860100A8
:1031E00010270000DF020020E0020020E1020020A2
:1031F000E2020020E3020020E5020020E6020020B7
:10320000E7020020E8020020E9020020EB02002093
:10321000EC020020ED020020EE020020EF02002070
:103220003B6830331A000E4BD318181D3B68713BB6
:103230000B4AD318DB7B1A000A4B190004F020FC60
:103240003B6801333B603B687F2BE9DD064B802107
:10325000180000F0E3FBC046BD4605B090BDC04677
:103260004C020020208700088002002080B500AFBB
:1032700072B6C046FEE7000080B500AF164B174A95
:103280001A60154B00225A60134B7F229A60124B32
:10329000FF22DA60104B00221A610F4B00225A61A4
:1032A0000D4B00229A610C4B0022DA610A4B180088
:1032B00002F07AFB031E01D0FFF7D8FF9623990096
:1032C000054B0422180002F05FFC031E01D0FFF73B
:1032D000CDFFC046BD4680BD0C0300200028004045
:1032E00080B582B000AF78607B681B680A4A934261
:1032F0000ED10A4B1A6D094B8021C9020A431A6587
:1033000000220021022001F025F9022001F037F906
:10331000C046BD4602B080BD0028004000100240FB
:1033200080B582B000AF7860064B01221A70064B60
:1033300000229A76FEF728FE00F086FCC046BD46C5
:1033400002B080BD080300208006002080B500AFD9
:10335000074B5A6B064B01210A435A63044B9A6B85
:10336000034B802149050A439A63C046BD4680BD90
:103370000010024080B500AFFEE780B500AFFEE769
:1033800080B500AFC046BD4680BD80B500AFC04629
:10339000BD4680BD80B500AF00F008FCC046BD460C
:1033A00080BD000080B500AF034B180002F0B2FCF6
:1033B000C046BD4680BDC0460C03002080B500AFAE
:1033C000202001F01DFBC046BD4680BD80B500AF8A
:1033D000034B180000F038FEC046BD4680BDC04615
:1033E000A800002080B500AF034B180003F0D4F80C
:1033F000C046BD4680BDC0467404002080B500AF05
:10340000034B180003F0C8F8C046BD4680BDC04657
:10341000FC05002080B586B000AF7860144A154BDB
:10342000D31A7B617B693B61134B1B68002B02D174
:10343000114B124A1A60104B1A687B68D3183A690C
:103440009A4207D204F0E0FA03000C221A6001232A
:103450005B4209E0084B1B68FB60074B1A687B68FE
:10346000D218054B1A60FB681800BD4606B080BD37
:1034700000500020000400008C000020C007002045
:1034800080B500AFC046BD4680BD000080B586B0A7
:1034900000AF0823FB18180010231A00002104F0C5
:1034A000E6FA3B00180008231A00002104F0DFFAB6
:1034B0001E4B8022D2051A601C4B0F225A601B4BF8
:1034C00000229A60194B1A4ADA60184B00221A61DE
:1034D000164B00225A61154B180002F045FC031EE2
:1034E00001D0FFF7C3FE08217B18802252011A6029
:1034F0007A180E4B1100180002F0C0FC031E01D018
:10350000FFF7B4FE3B0000221A603B0000225A6025
:103510003A00064B1100180002F07CFE031E01D099
:10352000FFF7A4FEC046BD4606B080BD30030020B4
:10353000FEFF000080B582B000AF78607B681A683B
:103540008023DB059A4205D1044B9A6B034B012182
:103550000A439A63C046BD4602B080BD00100240D7
:1035600080B582B000AF0200BB1D1A80084B1B68FB
:1035700000225A62C046064B1B685A6ABB1D1B8854
:103580009A42F8D3C046C046BD4602B080BDC04690
:103590003003002080B500AF144B154A1A60134B5E
:1035A000E12252025A60114B00229A600F4B002216
:1035B000DA600E4B00221A610C4B0C225A610B4B45
:1035C00000229A61094B0022DA61084B00221A623C
:1035D000064B00225A62054B180002F079FE031ECA
:1035E00001D0FFF743FEC046BD4680BD74040020F5
:1035F0000038014080B500AF144B154A1A60134BD8
:10360000E12252025A60114B00229A600F4B0022B5
:10361000DA600E4B00221A610C4B0C225A610B4BE4
:1036200000229A61094B0022DA61084B00221A62DB
:10363000064B00225A62054B180002F049FE031E99
:1036400001D0FFF713FEC046BD4680BDFC0500203B
:103650000044004090B58BB000AF786014243B1953
:10366000180014231A00002104F001FA7B681B687B
:10367000384A934233D1384B5A6B374B8021C901BA
:103680000A435A63344BDA6A334B01210A43DA6244
:10369000314BDB6A012213403B613B693B19C0227D
:1036A000D2001A6021007B1802225A607B18002287
:1036B0009A607B180322DA607B1804221A617A1858
:1036C000A023DB051100180000F0FEFF00220021FE
:1036D0001B2000F03FFF1B2000F051FF36E07B680D
:1036E0001B681E4A934231D11B4B9A6B1A4B8021A7
:1036F00089020A439A63184BDA6A174B01210A437D
:10370000DA62154BDB6A01221340FB60FB6814216F
:103710007B180C221A607B1802225A607B18002248
:103720009A607B180322DA607B1804221A617A18E7
:10373000A023DB051100180000F0C6FF00220021C5
:103740001C2000F007FF1C2000F019FFC046BD46FA
:103750000BB090BD00380140001002400044004012
:1037600080B500AF0749084B0122180002F0ACFEFB
:103770000649074B0122180002F0A6FEC046BD46CE
:1037800080BDC046F80500207404002070040020AD
:10379000FC05002080B582B000AF78607B681B68B4
:1037A0001C4A934225D11C4A81235B00D35C002B29
:1037B0001FD0194A0223FF33D35C1900164A802315
:1037C0005B00D25C144B5A54134A0223FF33D35C80
:1037D0000133D9B2104A0223FF33D1540E4A0223D7
:1037E000FF33D35CFF2B04D10B4A0223FF330021AC
:1037F000D1540A490A4B0122180002F065FE09491A
:10380000094B0122180002F05FFEC046BD4602B01F
:1038100080BDC04600380140F8040020F8050020B3
:103820007404002070040020FC05002080B500AF67
:1038300080231B0107480122190001F0C3F864200E
:1038400000F0D0F9044B0A21180000F0E7F8C04658
:10385000BD4680BD000400502887000880B500AF39
:1038600080231B0107480022190001F0ABF86420F7
:1038700000F0B8F9044B0B21180000F0CFF8C04657
:10388000BD4680BD000400503487000880B500AFFD
:103890008023DB0009480122190001F093F8FA2384
:1038A0005B001800FFF75CFE8023DB00034800226A
:1038B000190001F087F8C046BD4680BD00040050E5
:1038C00080B582B000AF264B0B21180000F0A6F89F
:1038D000FB1D00221A703B1D00221A8035E0214B8F
:1038E00000229A801F4B00225A70FFF7CFFF1D4B1A
:1038F00001221A70FA23DB001800FFF731FE194B82
:1039000002221A70174B01225A70174B1800FFF74A
:1039100027FE144B00225A70124B9A88FB1D1B780D
:10392000FA21C9008C46624491B20E4A5B00D3185A
:1039300006330A1C1A80FB1D1A78FB1D01321A700F
:103940003B1D1A883B1D01321A80064B5B883A1DCD
:1039500012889A42C3D3C046C046BD4602B080BD5D
:103960004087000880060020606D000080B582B0AE
:1039700000AF244B180002F037FA234B0A225A807A
:10398000214B00229A80214BB722012199541F4BD1
:10399000B82200219954FDF76BFB00237B600DE0FA
:1039A0001A4A7B68D3182A221A70184A7B68D318DF
:1039B0000F332A221A707B6801337B607B680E2BE1
:1039C000EEDD134B01221A70124B0022DA71114BFB
:1039D00000221A700F4B00225A710E4B00221A72ED
:1039E0000C4B00225A720B4B01229A710A4B012296
:1039F0005A73064BB62201219954C046BD4602B007
:103A000080BDC04630030020800600204C0200200C
:103A1000080300209C0700209800002080B584B097
:103A200000AF78600A00FB1C1A70FB1C1B78FA2B95
:103A300002D9FB1CFA221A70FB1C1B7802331A00F5
:103A4000194B2D21180004F012F80023FB600BE045
:103A5000FB687A68D3181978134AFB68D3180A1CD4
:103A60001A70FB680133FB60FB1C1B78FA689A42F2
:103A7000EEDBFB1C1B780C4A0D21D154FB1C1B7880
:103A80000133094A0A21D154FB1C1B789BB2023333
:103A90009AB201235B420449044802F06DFCC0461F
:103AA000BD4604B080BDC0469C060020FC05002039
:103AB0000D4885460D480E490E4A002302E0D458B1
:103AC000C4500433C4188C42F9D30B4A0B4C002366
:103AD00001E013600432A242FBD3FFF7D1FC03F0F4
:103AE00099FFFEF709FAFEE70050002000000020D1
:103AF000700000202488000870000020BC0700200F
:103B0000FEE7000080B582B000AFFB1D00221A70F6
:103B10000B4B1A680A4B40210A431A60032000F03D
:103B200011F8031E03D0FB1D01221A7001E0FFF7FC
:103B30000DFCFB1D1B781800BD4602B080BDC046C1
:103B40000020024090B583B000AF7860144B1C6831
:103B5000144B1B781900FA239800FCF7DFFA0300D6
:103B600019002000FCF7DAFA0300180000F017FD36
:103B7000031E01D001230FE07B68032B0BD879686B
:103B800001235B420022180000F0E4FC064B7A6837
:103B90001A60002300E001231800BD4603B090BD69
:103BA00000000020080000200400002080B500AFC5
:103BB000054B1B781A00054B1B68D218034B1A6083
:103BC000C046BD4680BDC04608000020A8070020B2
:103BD00080B500AF024B1B681800BD4680BDC046D3
:103BE000A807002080B584B000AF7860FFF7F0FF31
:103BF0000300BB607B68FB60FB68013305D00A4BA8
:103C00001B781A00FB689B18FB60C046FFF7E0FFBB
:103C10000200BB68D31AFA689A42F7D8C046C04679
:103C2000BD4604B080BDC0460800002080B500AF8E
:103C3000044B1A68034B02218A431A60C046BD46F2
:103C400080BDC04610E000E080B500AF044B1A68AC
:103C5000034B02210A431A60C046BD4680BDC046E0
:103C600010E000E080B582B000AF78607B68002B88
:103C700001D1012359E17B685B6D002B0AD17B6880
:103C800000229A657B685022002199547B681800B5
:103C9000FDF7AAF87B685B6D10221340102B05D04E
:103CA0007B681B689B68042213400BD07B685B6DAC
:103CB00010221A437B685A657B6850220021995470
:103CC000012332E17B685B6D9A4A134002221A435A
:103CD0007B685A657B681B689B6803221340012B35
:103CE00008D17B681B681B6801221340012B01D19E
:103CF000012300E00023002B49D17B685A68C023D0
:103D00001B069A420BD07B685A688023DB059A42D7
:103D100005D07B685A6880231B069A4211D17B68C4
:103D20001B681A697B681B68920092081A617B689D
:103D30001B6819697B685A687B681B680A431A61AB
:103D400014E07B681B681A697B681B689200920804
:103D50001A61794B1A68784B78490A401A60764B99
:103D600019687B685A68744B0A431A607B681B6841
:103D7000DA687B681B6818218A43DA607B681B68F5
:103D8000D9687B689A687B681B680A43DA606A4B6B
:103D90001A68694B6A490A401A60674B19687B6860
:103DA0005B6B5A06644B0A431A607B681B689A680F
:103DB00080235B05134008D17B681B689A687B6889
:103DC0001B68802149050A439A607B681B68DA6892
:103DD0007B681B685B490A40DA607B681B68D968AE
:103DE0007B68DA687B681B69022B01D1042300E041
:103DF00000231A437B6820201B5C5B031A437B680B
:103E00002C201B5C5B001A437B681B6B1A437B688E
:103E10009B699B031A437B68DB69DB031A437B685E
:103E20001B680A43DA607B685A6AC223FF339A42EE
:103E30000BD07B681B68D9687B685A6A7B689B6A71
:103E40001A437B681B680A43DA607B6821229B5C0B
:103E5000012B1AD17B6820229B5C002B09D17B6847
:103E60001B68DA687B681B68802149020A43DA60B4
:103E70000BE07B685B6D20221A437B685A657B6888
:103E80009B6D01221A437B689A657B68DB6B012B73
:103E90001FD17B681B681A697B681B682A490A4026
:103EA0001A617B681B6819697B681A6C7B685B6C9C
:103EB0001A437B689B6C1A437B681B680A431A6130
:103EC0007B681B681A697B681B6801210A431A61B9
:103ED0000EE07B681B681B6901221340012B07D190
:103EE0007B681B681A697B681B6801218A431A6119
:103EF0007B681B685A697B681B6807218A435A6183
:103F00007B681B6859697B689A6B7B681B680A43EE
:103F10005A617B6800229A657B685B6D032293433C
:103F200001221A437B685A6500231800BD4602B07F
:103F300080BDC046FDFEFFFF08270140FFFFC3FF15
:103F4000FFFFFFFD1902FEFF03FCFFFF90B585B0E8
:103F500000AF78600F23FB1800221A707B681B6883
:103F60009B680422134056D17B6850229B5C012B36
:103F700001D1022356E07B685022012199547B68CD
:103F8000DB69012B07D00F23FC187B68180000F0B9
:103F9000ADF9030023700F23FB181B78002B3ED1D3
:103FA0007B685B6D214A1340802252001A437B6874
:103FB0005A657B6800229A657B68502200219954DB
:103FC0007B681B681C221A607B685B69082B10D118
:103FD0007B681B685A687B681B6804218A435A60A7
:103FE0007B681B685A687B681B6818210A435A6003
:103FF00008E07B681B685A687B681B681C210A43C1
:104000005A60C0467B681B689A687B681B680421FD
:104010000A439A6003E00F23FB1802221A700F2351
:10402000FB181B781800BD4605B090BDFEF0FFFFE1
:1040300080B582B000AF78607B681B681B6C18008D
:10404000BD4602B080BD000080B582B000AF786090
:104050007B681B681B6804221340042B06D17B6815
:104060001B685B6804221340042B0DD07B681B681F
:104070001B6808221340082B54D17B681B685B68BF
:1040800008221340082B4DD17B685B6D1022134032
:1040900006D17B685B6D802292001A437B685A656B
:1040A0007B681B68DA68C0231B0113402ED17B6834
:1040B00020229B5C002B29D17B681B681B6808228F
:1040C0001340082B22D17B681B689B680422134095
:1040D00010D17B681B685A687B681B680C218A4377
:1040E0005A607B685B6D354A134001221A437B6836
:1040F0005A650BE07B685B6D20221A437B685A652A
:104100007B689B6D01221A437B689A657B68180067
:10411000FCF78AFE7B689B69012B03D07B681B68D8
:104120000C221A607B681B681B6880221340802B5E
:1041300015D17B681B685B6880221340802B0ED1F1
:104140007B685B6D802252021A437B685A657B68EC
:10415000180000F035F87B681B6880221A607B68C5
:104160001B681B6810221340102B23D17B681B682F
:104170005B6810221340102B1CD17B681B6B002B3B
:1041800006D07B681B68DB6801221340012B0DD130
:104190007B689B6D02221A437B689A657B681B686B
:1041A00010221A607B68180000F012F87B681B6808
:1041B00010221A60C046BD4602B080BDFEFEFFFF61
:1041C00080B582B000AF7860C046BD4602B080BD09
:1041D00080B582B000AF7860C046BD4602B080BDF9
:1041E00080B582B000AF786039607B6850229B5CFC
:1041F000012B01D102236CE07B68502201219954EC
:104200007B681B689B68042213400BD07B685B6D46
:1042100020221A437B685A657B68502200219954FA
:10422000012356E03B685B682C4A934228D07B68A8
:104230001B68996A3B681B685B035A0B7B681B68A9
:104240000A439A623B681A688023DB02134009D054
:10425000234B1A68224B802109040A431A600A2062
:1042600000F0ACF83B681A6880239B0213402BD007
:104270001B4B1A681A4B8021C9030A431A6023E0BA
:104280007B681B689A6A3B681B685B035B0BD943BE
:104290007B681B680A409A623B681A688023DB02CD
:1042A000134005D00E4B1A680D4B0E490A401A6098
:1042B0003B681A6880239B02134005D0084B1A689C
:1042C000074B09490A401A607B6850220021995423
:1042D00000231800BD4602B080BDC046011000009A
:1042E00008270140FFFF7FFFFFFFBFFF80B584B0BD
:1042F00000AF78600023FB607B681B689B6803222B
:104300001340012B08D17B681B681B6801221340F6
:10431000012B01D1012300E00023002B46D17B6853
:104320001B689B68244A13400DD07B685B6D10228C
:104330001A437B685A657B689B6D01221A437B6830
:104340009A65012333E07B681B689A687B681B6869
:1043500001210A439A60012000F030F8FFF738FC91
:104360000300FB601BE0FFF733FC0200FB68D31A7D
:104370000A2B14D97B681B681B6801221340012B90
:104380000DD07B685B6D10221A437B685A657B6891
:104390009B6D01221A437B689A65012307E07B68C5
:1043A0001B681B6801221340012BDCD1002318007D
:1043B000BD4604B080BDC0461700008080B584B003
:1043C00000AF78600B4B1B680B491800FBF7A6FE8B
:1043D00003001A007B685343FB6002E0FB68013B6B
:1043E000FB60FB68002BF9D1C046C046BD4604B057
:1043F00080BDC0460000002040420F0080B582B062
:1044000000AF0200FB1D1A70FB1D1B787F2B09D823
:10441000FB1D1B781A001F231A40044B01219140F9
:104420000A001A60C046BD4602B080BD00E100E04F
:1044300090B583B000AF02003960FB1D1A70FB1D00
:104440001B787F2B28D82F4AFB1D1B785BB29B085B
:10445000C0339B009B58FA1D1278110003220A40BA
:10446000D200FF2191400A00D2431A4011003B685C
:104470009B01FF221A40FB1D1B78180003230340F9
:10448000DB009A401F48FB1D1B785BB29B080A4368
:10449000C0339B001A5031E01B4AFB1D1B781900EA
:1044A0000F230B40083B9B0806339B00D3180433B3
:1044B0001B68FA1D1278110003220A40D200FF2166
:1044C00091400A00D2431A4011003B689B01FF2231
:1044D0001A40FB1D1B78180003230340DB009A40A1
:1044E0000948FB1D1B781C000F232340083B9B0839
:1044F0000A4306339B00C31804331A60C046BD4606
:1045000003B090BD00E100E000ED00E080B582B0B6
:1045100000AF78607B685A1E80235B049A4201D307
:10452000012310E00A4B7A68013A5A6001235B428A
:1045300003211800FFF77CFF054B00229A60044B13
:1045400007221A6000231800BD4602B080BDC04695
:1045500010E000E080B584B000AFB9607A600F2150
:104560007B18021C1A70BA687B181B785BB21100AA
:104570001800FFF75DFFC046BD4604B080BD80B5A2
:1045800082B000AF0200FB1D1A70FB1D1B785BB2EE
:104590001800FFF733FFC046BD4602B080BD80B5AE
:1045A00082B000AF78607B681800FFF7AFFF0300B0
:1045B0001800BD4602B080BD80B584B000AF786001
:1045C0000F23FB1800221A707B6825229B5CDBB24C
:1045D000022B08D07B680422DA637B682422002146
:1045E0009954012324E07B681B681A687B681B6868
:1045F0000E218A431A607B681B681A687B681B68F7
:1046000001218A431A607B685B6C1C221A407B681C
:104610001B6C012191400A005A607B682522012110
:1046200099547B682422002199540F23FB181B788E
:104630001800BD4604B080BD80B584B000AF78607E
:104640000F217B1800221A707B6825229B5CDBB24D
:10465000022B06D07B680422DA637B1801221A70D1
:104660002AE07B681B681A687B681B680E218A43F6
:104670001A607B681B681A687B681B6801218A4383
:104680001A607B685B6C1C221A407B681B6C0121E2
:1046900091400A005A607B682522012199547B6869
:1046A0002422002199547B689B6B002B04D07B68EB
:1046B0009B6B7A68100098470F23FB181B78180033
:1046C000BD4604B080BD000080B586B000AF786004
:1046D000396000237B610023FB6000233B6155E1CF
:1046E0003B681B6801217A6991400A001340FB6016
:1046F000FB68002B00D146E13B685B680322134056
:10470000012B05D03B685B6803221340022B30D19C
:104710007B689B683B617B695B0003229A401300C6
:10472000DA433B6913403B613B68DA687B695B00B5
:104730009A4013003A6913433B617B683A699A6077
:104740007B685B683B6101227B699A401300DA4316
:104750003B6913403B613B685B681B0901221A40BF
:104760007B699A4013003A6913433B617B683A695D
:104770005A603B685B6803221340032B17D07B68A9
:10478000DB683B617B695B0003229A401300DA43DC
:104790003B6913403B613B689A687B695B009A40C8
:1047A00013003A6913433B617B683A69DA603B68FE
:1047B0005B6803221340022B23D17B69DA087B68F4
:1047C00008329200D3583B617B69072213409B005B
:1047D0000F229A401300DA433B6913403B613B6868
:1047E0001A697B6907210B409B009A4013003A69C4
:1047F00013433B617B69DA087B68083292003969B0
:10480000D1507B681B683B617B695B0003229A4047
:104810001300DA433B6913403B613B685B6803224A
:104820001A407B695B009A4013003A6913433B616D
:104830007B683A691A603B685A68C0239B02134040
:1048400000D1A0E0574B5A6B564B01210A435A63E3
:10485000554A7B699B0802339B009B583B617B69EF
:10486000032213409B000F229A401300DA433B6956
:1048700013403B617A68A023DB059A421FD07B6816
:104880004A4A934219D07B68494A934213D07B68C5
:10489000484A93420DD07B68474A934207D07B68D1
:1048A000464A934201D105230AE0062308E0042387
:1048B00006E0032304E0022302E0012300E00023DA
:1048C0007A6903210A40920093403A6913433B619D
:1048D00035497B699B0802339B003A695A50384B33
:1048E0001B683B61FB68DA433B6913403B613B68F3
:1048F0005A6880235B02134003D03A69FB68134374
:104900003B612F4B3A691A602D4B5B683B61FB683A
:10491000DA433B6913403B613B685A6880239B0242
:10492000134003D03A69FB6813433B61244B3A6957
:104930005A60234B9B683B61FB68DA433B69134039
:104940003B613B685A6880235B03134003D03A699C
:10495000FB6813433B611A4B3A699A60184BDB685A
:104960003B61FB68DA433B6913403B613B685A6833
:1049700080239B03134003D03A69FB6813433B61D8
:104980000F4B3A69DA607B6901337B613B681A68D7
:104990007B69DA40131E00D0A2E6C046C046BD4681
:1049A00006B080BD0010024000000140000400502D
:1049B00000080050000C005000100050001C005077
:1049C0000004014080B582B000AF7860080011009B
:1049D000BB1C021C1A807B1C0A1C1A707B1C1B78D7
:1049E000002B04D0BB1C1A887B689A6103E0BB1CB7
:1049F0001A887B689A62C046BD4602B080BD00003E
:104A000080B582B000AF0200BB1D1A80094B5B6904
:104A1000BA1D1288134008D0064BBA1D12885A617D
:104A2000BB1D1B881800FCF707FBC046BD4602B043
:104A300080BDC0460004014080B500AF044B1A6839
:104A4000034B802149000A431A60C046BD4680BD21
:104A50000070004080B586B000AF78600A00FB1C93
:104A60001A7000237B61254B1A6880239B0013403A
:104A70003B61234B1B6A01221340FB603B69002B07
:104A800008D0FB68002B05D01C4B1A681B4B1D4936
:104A90000A401A60194B1B687B617B6903229343B0
:104AA0007B617A697B6813437B61144B7A691A6076
:104AB000154B1A69144B04210A431A61FB1C1B781D
:104AC000012B01D130BF02E040BF20BF20BF0E4B01
:104AD0001A690D4B04218A431A613B69002B09D0E6
:104AE000FB68002B06D0054B1A68044B8021890017
:104AF0000A431A60C046BD4606B080BD0070004043
:104B000000000140FFFDFFFF00ED00E0B0B58AB0FE
:104B100000AF78607B68002B02D1012300F0BFFB5F
:104B2000C94BDB680C221340FB61C74BDA6880235A
:104B30005B021340BB617B681B680122134000D1FC
:104B40007EE0FB69082B07D0FB690C2B12D1BA69F8
:104B500080235B029A420DD1BB4B1A6880239B02D3
:104B6000134000D16BE07B685B68002B67D10123A9
:104B700000F095FB7B685A6880235B029A4207D15C
:104B8000B14B1A68B04B802149020A431A6027E0F2
:104B90007B685A68A023DB029A420ED1AA4B1A689E
:104BA000A94B8021C9020A431A60A74B1A68A64B79
:104BB000802149020A431A6012E0A34B1A68A24BF3
:104BC000A2490A401A60A04B1A6880235B02134076
:104BD000FB60FB689C4B1A689B4B9D490A401A601E
:104BE0007B685B68002B15D0FEF7F2FF03007B614A
:104BF00009E0FEF7EDFF02007B69D31A642B02D9AE
:104C0000032300F04CFB904B1A6880239B02134057
:104C1000EFD015E0FEF7DCFF03007B6108E0FEF754
:104C2000D7FF02007B69D31A642B01D9032336E333
:104C3000854B1A6880239B021340F0D100E0C046E8
:104C40007B681B680222134000D199E07B68DB6817
:104C50007B627B6A2022134009D07B4B1A687A4B17
:104C600020210A431A607B6A202293437B62FB69FE
:104C7000042B05D0FB690C2B3ED1BB69002B3BD12B
:104C8000714B1B680422134004D07B6A002B01D1B6
:104C9000012304E36C4B5B686E4A134019007B6888
:104CA0001B691A02684B0A435A60674B1B6809224A
:104CB00093431900644B7A6A0A431A6000F042FC7D
:104CC0000100614BDB681B090F221340624AD35C71
:104CD0000A00DA40614B1A60614B1B6813257C198E
:104CE0001800FEF72FFF030023707B191B78002BA1
:104CF00046D07B191B78D2E27B6A002B27D0524B1F
:104D00001B680922934319004F4B7A6A0A431A60C1
:104D1000FEF75EFF03007B6108E0FEF759FF02002B
:104D20007B69D31A022B01D90323B8E2464B1B68D7
:104D300004221340F1D0444B5B68464A13401900EB
:104D40007B681B691A02404B0A435A6018E03E4BCD
:104D50001A683D4B01218A431A60FEF739FF0300B0
:104D60007B6108E0FEF734FF02007B69D31A022B57
:104D700001D9032393E2344B1B6804221340F1D181
:104D80007B681B681022134000D1A2E0FB69002B56
:104D900040D12D4B1A6880239B00134005D07B68BF
:104DA000DB69002B01D1012379E2274B5B682D4A97
:104DB000134019007B685A6A234B0A435A60224BFE
:104DC0005B681B02190A7B681B6A1A061E4B0A43A2
:104DD0005A607B685B6A5B0B0133802212029A4047
:104DE000194BDB681B090F210B401B49CB5CDA40D8
:104DF0001A4B1A601A4B1B6813257C191800FEF712
:104E0000A1FE030023707B191B78002B61D07B1956
:104E10001B7844E27B68DB69002B40D00A4B1A68A0
:104E2000094B802149000A431A60FEF7D1FE0300B6
:104E30007B6119E0FEF7CCFE02007B69D31A022BDE
:104E400012D903232BE2C04600100240FFFFFEFFF1
:104E5000FFFFFBFFFFE0FFFF74870008000000205A
:104E600004000020FF1FFFFFCA4B1A6880239B002D
:104E70001340DFD0C74B5B68C74A134019007B68FB
:104E80005A6AC44B0A435A60C24B5B681B02190A38
:104E90007B681B6A1A06BF4B0A435A6019E0BD4B78
:104EA0001A68BC4BBD490A401A60FEF791FE030028
:104EB0007B6108E0FEF78CFE02007B69D31A022BAF
:104EC00001D90323EBE1B34B1A6880239B00134005
:104ED000F0D17B681B680822134036D07B685B6981
:104EE000002B19D0AB4B1A6DAA4B01210A431A654E
:104EF000FEF76EFE03007B6108E0FEF769FE02002C
:104F00007B69D31A022B01D90323C8E1A14B1B6D86
:104F100002221340F1D018E09E4B1A6D9D4B0121E7
:104F20008A431A65FEF754FE03007B6108E0FEF732
:104F30004FFE02007B69D31A022B01D90323AEE195
:104F4000944B1B6D02221340F1D17B681B68042235
:104F5000134000D1AEE023203B1800221A708D4B85
:104F60009A6B80235B05134009D18A4B9A6B894B5E
:104F7000802149050A439A633B1801221A70884B25
:104F80001A6880235B0013401AD1854B1A68844B42
:104F9000802149000A431A60FEF71AFE03007B6174
:104FA00008E0FEF715FE02007B69D31A642B01D9D5
:104FB000032374E17A4B1A6880235B001340F0D01E
:104FC0007B689A6880235B009A4207D1714B1A6D07
:104FD000704B802149000A431A6531E07B689B6869
:104FE000002B0CD16B4B1A6D6A4B6C490A401A6549
:104FF000684B1A6D674B6B490A401A6520E07B6865
:105000009A68A023DB009A420ED1624B1A6D614B65
:105010008021C9000A431A655E4B1A6D5D4B8021E1
:1050200049000A431A650BE05A4B1A6D594B5B490C
:105030000A401A65574B1A6D564B5A490A401A6571
:105040007B689B68002B15D0FEF7C2FD03007B61D7
:1050500009E0FEF7BDFD02007B69D31A524A934274
:1050600001D903231BE14B4B1A6D80239B00134096
:10507000EFD014E0FEF7ACFD03007B6109E0FEF722
:10508000A7FD02007B69D31A474A934201D9032343
:1050900005E1404B1A6D80239B001340EFD1232381
:1050A000FB181B78012B05D13A4B9A6B394B3F49C2
:1050B0000A409A637B681B682022134049D07B68B2
:1050C0009B69002B26D0334B9A68324B01210A434F
:1050D0009A60304B5A6B2F4B01210A435A63344B71
:1050E0001A6A334B802189010A431A62FEF770FD68
:1050F00003007B6108E0FEF76BFD02007B69D31AB9
:10510000022B01D90323CAE0224B9B6802221340E1
:10511000F1D01EE01F4B9A681E4B01218A439A6012
:10512000234B1A6A224B23490A401A62FEF750FDAC
:1051300003007B6108E0FEF74BFD02007B69D31A98
:10514000022B01D90323AAE0124B9B6802221340D1
:10515000F1D17B689B6A002B00D19FE0FB690C2B8F
:1051600000D178E07B689B6A022B59D1094B1A6801
:10517000084B11490A401A60FEF72AFD03007B61C3
:105180001CE0FEF725FD02007B69D31A022B15D91E
:10519000032384E000100240FF1FFFFFFFFEFFFF1C
:1051A00000700040FFFBFFFF88130000FFFFFFEFD0
:1051B00000000140FFDFFFFFFFFFFFFE3A4B1A68D0
:1051C00080239B041340DCD1374BDB68374A134004
:1051D00019007B68DA6A7B681B6B1A437B685B6B20
:1051E0001A43314B0A43DA602F4B1A682E4B802149
:1051F00049040A431A60FEF7EBFC03007B6108E0F8
:10520000FEF7E6FC02007B69D31A022B01D90323C7
:1052100045E0254B1A6880239B041340F0D03DE005
:10522000214B1A68204B22490A401A60FEF7D0FC35
:1052300003007B6108E0FEF7CBFC02007B69D31A18
:10524000022B01D903232AE0174B1A6880239B0401
:105250001340F0D122E07B689B6A012B01D101232E
:105260001DE0114BDB68BB61BA6980235B021A4009
:105270007B68DB6A9A420FD1BA69F0239B031A401C
:105280007B681B6B9A4207D1BA69C0231B041A4082
:105290007B685B6B9A4201D0012300E00023180079
:1052A000BD460AB0B0BDC04600100240FFFF02FF7D
:1052B000FFFFFFFEB0B584B000AF786039607B6857
:1052C000002B01D1012328E1964B1B6801221340DA
:1052D0003A689A421ED9934B1B68012293431900E6
:1052E000904B3A680A431A60FEF772FC0300FB60B9
:1052F00009E0FEF76DFC0200FB68D31A8A4A93426C
:1053000001D9032309E1874B1B68012213403A6846
:105310009A42EED17B681B680222134009D0834B6E
:10532000DB68F022934319007B689A687F4B0A433D
:10533000DA607B681B680122134000D189E07B683A
:105340005B68022B07D1794B1A6880239B021340BC
:1053500020D10123E1E07B685B68032B07D1734B0D
:105360001A6880239B04134014D10123D5E07B6885
:105370005B68012B06D16D4B1B680422134009D1D9
:105380000123CAE0694B1A6880239B00134001D1B6
:105390000123C2E0654BDB680322934319007B685D
:1053A0005A68624B0A43DA60FEF712FC0300FB60A6
:1053B0007B685B68022B11D109E0FEF709FC020053
:1053C000FB68D31A584A934201D90323A5E0574BEF
:1053D000DB680C221340082BEFD13AE07B685B6856
:1053E000032B11D109E0FEF7F3FB0200FB68D31A8F
:1053F0004D4A934201D903238FE04C4BDB680C22CA
:1054000013400C2BEFD124E07B685B68012B1BD190
:1054100009E0FEF7DDFB0200FB68D31A424A934223
:1054200001D9032379E0414BDB680C221340042BA4
:10543000EFD10EE0FEF7CCFB0200FB68D31A3A4A2C
:10544000934201D9032368E0384BDB680C221340F8
:10545000F0D1344B1B68012213403A689A421ED2A5
:10546000304B1B680122934319002E4B3A680A43C4
:105470001A60FEF7ADFB0300FB6009E0FEF7A8FB36
:105480000200FB68D31A284A934201D9032344E05F
:10549000244B1B68012213403A689A42EED17B6884
:1054A0001B680422134009D0204BDB68204A1340BC
:1054B00019007B68DA681D4B0A43DA607B681B6859
:1054C000082213400AD0194BDB681A4A134019000E
:1054D0007B681B69DA00154B0A43DA6000F032F88A
:1054E0000100124BDB681B090F221340124AD35CE8
:1054F0000A00DA40114B1A60114B1B680B257C190E
:105500001800FEF71FFB030023707B191B78002B8C
:1055100002D07B191B7800E000231800BD4604B0C0
:10552000B0BDC046002002408813000000100240B9
:10553000FFF8FFFFFFC7FFFF74870008000000208F
:1055400004000020B0B58EB000AF4C4BDB68FB62AE
:10555000FA6A0C2313400C2B14D000D97BE0042BE7
:1055600002D0082B0BD076E0444B1B68102213406E
:1055700002D0434B3B637CE0424B3B6379E0424BC0
:105580003B6376E0FB6A9A0C0F231A403F4B9B5C0F
:10559000BB62FB6A9A0D0323134001337B62374BD6
:1055A000DA6880235B0213401AD0BB6ABB61002318
:1055B000FB61354A0023B869F969FAF745FF020033
:1055C0000B00100019007B6A3B6100237B613A6984
:1055D0007B69FAF719FF02000B0013007B6337E0C9
:1055E000264B1B68102213401AD0BB6ABB600023F5
:1055F000FB60234A0023B868F968FAF725FF020028
:105600000B00100019007B6A3B6000237B603A6846
:105610007B68FAF7F9FE02000B0013007B6317E0CA
:10562000BB6A180000231900164A0023FAF70CFF82
:1056300002000B00100019007B6A1C0000231D00F3
:1056400022002B00FAF7E0FE02000B0013007B6340
:105650007B6B3B630DE0094B5B685B0B07221340E0
:105660003B623B6A0133802212029A4013003B6383
:10567000C0463B6B1800BD460EB0B0BD00100240E6
:1056800000093D000024F40000127A008C87000815
:1056900080B500AF024B1B681800BD4680BDC046F8
:1056A0000000002080B500AFFFF7F2FF0100064BBD
:1056B000DB681B0A07221340044AD35CD9400B0065
:1056C0001800BD4680BDC046001002408487000817
:1056D00080B500AFFFF7DCFF0100064BDB68DB0A9B
:1056E00007221340044AD35CD9400B001800BD4682
:1056F00080BDC046001002408487000880B586B097
:1057000000AF786017203B1800221A707B681B6876
:105710002022134000D1C2E0984B9A6B80235B0596
:10572000134009D1954B9A6B944B802149050A434C
:105730009A633B1801221A70914B1A6880235B0010
:1057400013401AD18E4B1A688D4B802149000A43B1
:105750001A60FEF73DFA03003B6108E0FEF738FAF5
:1057600002003B69D31A642B01D9032302E1844B65
:105770001A6880235B001340F0D0804B1A68C02366
:105780009B031340FB607B685A68C0239B03134054
:10579000FA689A4213D07B685A68C0239B021A4069
:1057A000C0239B029A420AD1744B1A6880239B0241
:1057B0001A4080239B029A4201D10123DAE06F4B09
:1057C0001A6DC0239B021340FB60FB68002B3BD08B
:1057D0007B685A68C0239B021340FA689A4233D010
:1057E0007B681B68202213402ED0644B1B6D654ADA
:1057F0001340FB60614B1A6D604B802109030A4323
:105800001A655E4B1A6D5D4B5F490A401A655B4B2A
:10581000FA681A65FA6880235B00134014D0FEF71B
:10582000D7F903003B6109E0FEF7D2F902003B69BA
:10583000D31A564A934201D903239BE04F4B1A6D6A
:1058400080239B001340EFD07B685A68C0239B02E3
:105850001A40C0239B029A420CD1484B1B684C4A09
:10586000134019007B685A68C0239B031A40434BBE
:105870000A431A60414B196D7B685A68C0239B022A
:105880001A403E4B0A431A651723FB181B78012B5D
:1058900005D13A4B9A6B394B3E490A409A637B6873
:1058A0001B680122134009D0344BDB6C0322934365
:1058B00019007B689A68314B0A43DA647B681B687D
:1058C0000222134009D02D4BDB6C0C2293431900AC
:1058D0007B68DA68294B0A43DA647B681B68042218
:1058E000134009D0254BDB6C2B4A134019007B6811
:1058F0001A69224B0A43DA647B681B68082213404A
:1059000009D01E4BDB6C254A134019007B685A698D
:105910001A4B0A43DA647B681A6880235B001340E1
:1059200009D0164BDB6C174A134019007B689A6943
:10593000124B0A43DA647B681B684022134009D08B
:105940000E4BDB6C164A134019007B681A6A0B4B2E
:105950000A43DA647B681B688022134009D0074B36
:10596000DB6C104A134019007B68DA69034B0A4369
:10597000DA6400231800BD4606B080BD0010024066
:1059800000700040FFFFFCFFFFFFF7FF88130000DF
:10599000FFFFCFFFFFFFFFEFFFF3FFFFFFCFFFFF93
:1059A000FFFFFFFBFFFFF3FF80B582B000AF786021
:1059B0007B68002B01D101238EE07B6821229B5C58
:1059C000DBB2002B07D17B682022002199547B6831
:1059D0001800FDF785FC7B682122022199547B6821
:1059E0001B68CA225A627B681B6853225A627B6812
:1059F000180000F09EF8031E09D07B681B68FF2288
:105A00005A627B68212204219954012364E07B6857
:105A10001B689A687B681B6831490A409A607B68FA
:105A20001B6899687B685A687B681B691A437B68A6
:105A30009B691A437B681B680A439A607B681B68F2
:105A40007A68D2681A617B681B6819697B689B68F1
:105A50001A047B681B680A431A617B681B68DA6852
:105A60007B681B6880218A43DA607B681B68DA6C7C
:105A70007B681B6803218A43DA647B681B68D96CE6
:105A80007B68DA697B685B691A437B681B680A4339
:105A9000DA647B681B689B682022134013D17B6803
:105AA000180000F01FF8031E0DD07B681B68FF2252
:105AB0005A627B682122042199547B6820220021AC
:105AC0009954012308E07B681B68FF225A627B68B7
:105AD00021220121995400231800BD4602B080BD47
