:020000040800F2
:1000000000500020F93200084D2B0008532B000847
:1000100000000000000000000000000000000000E0
:10002000000000000000000000000000592B000844
:100030000000000000000000632B00086D2B00088A
:1000400049330008493300087D2B00084933000874
:10005000493300084933000849330008952B00084C
:100060004933000849330008493300084933000880
:10007000A52B00084933000849330008493300081C
:1000800049330008493300084933000800000000E4
:100090004933000849330008493300084933000850
:1000A000493300084933000849330008BD2B0008D4
:1000B000D52B000849330008000000004933000830
:1000C00010B5064C2378002B07D1054B002B02D02E
:1000D000044800E000BF0123237010BD7000002021
:1000E00000000000007B0008044B10B5002B03D07B
:1000F0000349044800E000BF10BDC04600000000F6
:1001000074000020007B000803B4714649084000D9
:100110004900095E49008E4403BC70470022430831
:100120008B4274D303098B425FD3030A8B4244D3BF
:10013000030B8B4228D3030C8B420DD3FF22090201
:1001400012BA030C8B4202D31212090265D0030BC0
:100150008B4219D300E0090AC30B8B4201D3CB03B6
:10016000C01A5241830B8B4201D38B03C01A5241F8
:10017000430B8B4201D34B03C01A5241030B8B42FA
:1001800001D30B03C01A5241C30A8B4201D3CB02E5
:10019000C01A5241830A8B4201D38B02C01A5241CA
:1001A000430A8B4201D34B02C01A5241030A8B42CD
:1001B00001D30B02C01A5241CDD2C3098B4201D3E5
:1001C000CB01C01A524183098B4201D38B01C01A63
:1001D000524143098B4201D34B01C01A52410309DA
:1001E0008B4201D30B01C01A5241C3088B4201D389
:1001F000CB00C01A524183088B4201D38B00C01A36
:10020000524143088B4201D34B00C01A5241411A5C
:1002100000D20146524110467047FFE701B5002069
:1002200000F0F0F802BDC0460029F7D076E770472D
:1002300003460B437FD4002243088B4274D3030947
:100240008B425FD3030A8B4244D3030B8B4228D3E8
:10025000030C8B420DD3FF22090212BA030C8B420E
:1002600002D31212090265D0030B8B4219D300E0AE
:10027000090AC30B8B4201D3CB03C01A5241830B33
:100280008B4201D38B03C01A5241430B8B4201D3E3
:100290004B03C01A5241030B8B4201D30B03C01A0C
:1002A0005241C30A8B4201D3CB02C01A5241830A86
:1002B0008B4201D38B02C01A5241430A8B4201D3B5
:1002C0004B02C01A5241030A8B4201D30B02C01ADF
:1002D0005241CDD2C3098B4201D3CB01C01A524146
:1002E00083098B4201D38B01C01A524143098B42CF
:1002F00001D34B01C01A524103098B4201D30B01B8
:10030000C01A5241C3088B4201D3CB00C01A5241DC
:1003100083088B4201D38B00C01A524143088B42A1
:1003200001D34B00C01A5241411A00D2014652413A
:10033000104670475DE0CA0F00D04942031000D359
:100340004042534000229C4603098B422DD3030AAE
:100350008B4212D3FC22890112BA030A8B420CD3BE
:10036000890192118B4208D3890192118B4204D3E7
:1003700089013AD0921100E08909C3098B4201D367
:10038000CB01C01A524183098B4201D38B01C01AA1
:10039000524143098B4201D34B01C01A5241030918
:1003A0008B4201D30B01C01A5241C3088B4201D3C7
:1003B000CB00C01A524183088B4201D38B00C01A74
:1003C0005241D9D243088B4201D34B00C01A52414B
:1003D000411A00D20146634652415B10104601D3D8
:1003E0004042002B00D54942704763465B1000D362
:1003F000404201B5002000F005F802BD0029F8D008
:1004000016E770477047C046002B11D1002A0FD164
:10041000002900D1002802D00021C943081C07B4DC
:10042000024802A14018029003BDC046D9FFFFFF59
:1004300003B4684601B5029800F046F8019B9E4659
:1004400002B00CBC7047C046F0B515042D0C0F006F
:1004500001002E00C64684460004140C000C090C52
:1004600046434D43604361434019340C241800B5A2
:10047000A54203D98020400280464144250C6D18D6
:10048000614659437A43300449192404000C20186A
:10049000891880BCB846F0BD9E2110B5C905041C62
:1004A00000F03CFB002803D1201C00F0A1FA10BD95
:1004B0009E21201CC90500F0D3F800F099FA802392
:1004C0001B069C466044F2E7F0B557464E4645464B
:1004D000DE46E0B504000D009246994683B08B429B
:1004E00030D82DD04946504600F040FB2900060088
:1004F000200000F03BFB331A9846203B9B4633D448
:100500005A465346934042461F00534693401E00AE
:10051000AF423AD8AF4200D178E05B46A41BBD4160
:10052000002B00DA75E000220023009201930123E2
:100530005A4693400193012342469340009328E09A
:100540008242CFD900220023009201930C9B002B02
:1005500001D01C605D600098019903B0F0BCBB46FF
:10056000B246A946A046F0BD424620239B1A5246F9
:10057000DA40414613004A468A40170042461F436C
:10058000534693401E00AF42C4D90022002300927C
:1005900001934346002BD9D0FB0772081A43464605
:1005A0007B080EE0AB4201D1A2420CD8A41A9D41B7
:1005B000012024196D410021013E24184D41002ED7
:1005C00006D0AB42EED9013E24196D41002EF8D180
:1005D000009801995B4600196941002B24DB2B0030
:1005E0005A464446D3402A00E2401C005B461500B0
:1005F000002B2ADB26009E40330026004746BE40E3
:100600003200801A9941009001919FE7A342BCD823
:1006100083E74246202300219B1A00220091019289
:100620000122DA40019286E7424620239B1A2A00E3
:1006300046469A402300F340444613432A00E240D2
:100640001C005B461500002BD4DA42462F00202305
:10065000260097409B1ADE403B003343CDE7C0465F
:10066000F0B54646D6464F4643025B0ADA0094464A
:100670004A02C0B54400560A051CB046240E4E007E
:1006800092091F0020009246ED0F360EC90FFF2E73
:1006900000D17FE0012251408D4251D0A21B9146F2
:1006A000002A00DC7EE0002E00D199E0FF2C00D172
:1006B0008CE080235246DB041A4392464A460123CB
:1006C0001B2A08DC53462021D340891A52468A400F
:1006D000511E8A4113436246D31A5A0100D4F3E0F3
:1006E0009B019E09300000F023FA053886408442C1
:1006F00000DDF7E03200041B20200134E240041B3F
:10070000A64033005E1EB341002413435A0704D0B1
:100710000F221A40042A00D004335A0100D4D6E034
:10072000621CFE2C00D1DAE09B015F0AD0B2C0054A
:100730003843ED072843E0BCBA46B146A846F0BDB1
:10074000A21B9146002A63DD002E00D199E0FF2C08
:100750003CD080235246DB041A4392464A4601238A
:100760001B2A08DC53462021D340891A52468A406E
:10077000511E8A41134363445A0100D4A4E001345A
:10078000FF2C00D1ABE0012297491A405B080B40D7
:100790001343BBE7002A32D08D4235D0FF225242AC
:1007A0009146A1444A46002A51D0301B002C00D06B
:1007B0009CE06346002B00D1DFE00138002800D127
:1007C000F7E0FF2E00D099E00D004346002B00D14A
:1007D00085E08027FF031F437F02FF207F0AA6E7F3
:1007E0005246002A74D0012252429046C1444A46E1
:1007F000002A00D1C8E0FF2C00D05FE7E6E7012225
:100800005140A94200D049E7FF2252429146A144FB
:100810004A46002A43D0311B002C00D18CE0FF2E29
:1008200000D192E080236246DB041A439446012300
:100830001B2909DC202063466246CB40411A8A40CE
:100840001100481E81410B433400534494E7FE22BB
:10085000661C324264D1002C00D082E06346002B3B
:1008600000D1ABE05346002B00D160E7634652460F
:100870009B1A5A0100D4AAE0634652460D00D31ACF
:1008800044E75246002A23D0012252429046C144F6
:100890004A46002A75D0FF2C00D05FE796E7FE2677
:1008A0000134264253D1002872D16346002B00D177
:1008B00093E05346002B00D139E7634400245A01EA
:1008C00002D54A4A013413405A0700D020E7DB081A
:1008D000FF2C00D17AE75B025F0AE0B227E7FF2036
:1008E000002724E7414B241A33400FE7FF2E00D1A5
:1008F0006AE780236246DB041A43944601231B28DF
:1009000009DC202463466246C340201A824010005E
:10091000441EA041034352460D003400D31ADCE6C6
:10092000634652469E1A730117D4002E00D0D9E6B2
:10093000002500200027FAE66346002B44D0013949
:1009400000294CD0FF2E00D071E743463EE7FF2C34
:10095000C5D0524662445308B6E763460D00D61A26
:10096000C0E66246002A16D15346002B00D02BE782
:1009700080270025FF20FF03D9E60D004346340001
:10098000A6E753466344F7E6634652469B1AA4E63D
:100990006246002AD9D05246002A00D116E78022AA
:1009A000D203134200D111E74046104200D00DE7B8
:1009B0000AE752460D003400D31A8EE65346002B48
:1009C00008D00D004746B2E64346340080E7002BCE
:1009D00000D079E700250027A9E64746A7E6534659
:1009E00034006344C8E6C046FFFFFF7DFFFFFFFB06
:1009F00041024200C30F490A0020120E7E2A03D989
:100A00009D2A02D9094A98187047802000040143A2
:100A1000952A07DC9620821AD1404842002BF3D158
:100A20000800F1E7963A9140F7E7C046FFFFFF7FE5
:100A300070B5002813D0C317C5185D40C40F280037
:100A400000F076F89E2301001B1A962B0FDC082875
:100A500001DD08398D406D026D0AD8B202E0002434
:100A600000200025C0052843E407204370BD992BD2
:100A70000BDD05222E00121AD64002001B329540D3
:100A80002800451EA84135000543052901DD4A1F00
:100A900095402A00084E3240680709D00F202840B0
:100AA000042805D00432500102D59F2332405B1A3E
:100AB0009201550AD8B2D5E7FFFFFFFB8446081C18
:100AC0006146FFE71FB500F0D1F8002801D40021EE
:100AD000C8421FBD10B500F055F84042013010BDAE
:100AE00010B500F0C3F8002801DB002010BD012084
:100AF00010BDC04610B500F0B9F8002801DD002097
:100B000010BD012010BDC04610B500F063F80028EC
:100B100001DC002010BD012010BDC04610B500F062
:100B200059F8002801DA002010BD012010BDC04690
:100B30001C2101231B04984201D3000C10391B0A0D
:100B4000984201D3000A08391B09984201D30009D1
:100B5000043902A2105C40187047C0460403020228
:100B600001010101000000000000000010B5002993
:100B700003D1FFF7DDFF203002E0081CFFF7D8FFAC
:100B800010BDC04670B542004E024C0045026D0AD1
:100B9000120EC30F760A240EC90FFF2A0FD0FF2CA6
:100BA00011D00120A24200D070BDB542FCD18B42D1
:100BB0000DD0002AF8D12800451EA841F4E70120F5
:100BC000002DF1D1EBE70120002EEDD1E9E7002067
:100BD000EAE7C046F0B5420046024D024C00C30FA2
:100BE000760A120E6D0A240EC80FFF2A1FD0FF2CA2
:100BF00010D0002A1FD171427141002C01D1002D6B
:100C00001ED000290ED183421ED00221581E08405A
:100C10000138F0BD002D26D1002AF4D17142714176
:100C20000029F0D00028F4D101204042F1E7002E45
:100C300019D1FF2CEED0002CE5D1002DE3D1E4E753
:100C40000020002EE5D0E0E7A24205DCEADBAE4260
:100C500002D8E7D30020DCE741424141484202216B
:100C600008400138D5E702204042D2E7F0B5420003
:100C700046024D024C00C30F760A120E6D0A240E76
:100C8000C80FFF2A0DD0FF2C0FD0002A23D17142AC
:100C90007141002C0FD1002D0DD10020002E14D059
:100CA0000DE0002E10D1FF2C15D1002D0CD1002A03
:100CB00003D171427141002908D1834210D0022131
:100CC000581E0840013800E00220F0BD0028FCD189
:100CD00001204042F9E7002CEFD1002DEDD1EEE7E5
:100CE000A24205DCF2DBAE4202D8EFD30020ECE7F3
:100CF000414241414842022108400138E5E7C046EF
:100D000080B582B000AF3B00180008231A00002114
:100D100006F0D1FA304B314A1A602F4B0022DA63C9
:100D20002D4B802212065A602B4B00229A602A4BD0
:100D300007229A63284B01221A61274B0022DA60AE
:100D4000254B202200219954234B21220021995424
:100D5000214B00229A62204BC222FF325A621E4B64
:100D60002C22002199541C4B04225A611A4B002258
:100D70001A63194B00229A61174B00225A63164BD3
:100D80000022DA61144B180002F090FB031E01D020
:100D900001F056FE3B00124A1A603B0080225201CD
:100DA0005A603A000C4B1100180002F03DFE031E81
:100DB00001D001F045FE3B000A4A1A603A00064B9A
:100DC0001100180002F030FE031E01D001F038FEC1
:100DD000C046BD4602B080BDA800002000240140EE
:100DE000000004480000024480B582B000AF786083
:100DF0007B681B680A4A93420ED10A4B5A6B094B17
:100E0000802189000A435A63002200210C2002F04D
:100E1000C5FF0C2002F0D7FFC046BD4602B080BD22
:100E2000002401400010024080B586B000AF786019
:100E30007B681B681B6804221340042B11D17B685C
:100E4000180002F019FD0100324B1B7B1A0089B219
:100E5000304B5200D1522F4B1B7B0133DAB22D4B5A
:100E60001A732C4B1B7B012B4FD92A4B00221A7370
:100E700000237B6100233B61264B1A88254B5B884E
:100E80009A4206D9234B5B887B61224B1B883B61CE
:100E900005E0204B1B887B611E4B5B883B611E4B32
:100EA0001B881A001D4B53433A6911001800FFF7C5
:100EB000BFF903001800FFF7BBFD021C154B9A6039
:100EC0000023FB607B69164A12889B1AFB60FB6853
:100ED00064225343FB60FB68124A12881100104AD7
:100EE00012888A1A11001800FFF7A2F90300FB60AC
:100EF000FB681E331A00074B5A60064B5B7B002BC6
:100F000003D07B68180002F045FCC046BD4606B021
:100F100080BDC046980000207800F81FE40C000057
:100F20007A00F81F7E00F81F90B589B000AF0C243E
:100F30003B19180014231A00002106F0BCF93C4BA1
:100F4000DA6A3B4B01210A43DA62394BDB6A012240
:100F50001340BB60BB68364BDA6A354B04210A4349
:100F6000DA62334BDB6A042213407B607B68304BD0
:100F7000DA6A2F4B02210A43DA622D4BDB6A022226
:100F800013403B603B68A023DB05002213211800BF
:100F900003F03CF9C0231B0126480022190003F08E
:100FA00035F93B1913221A603B1901225A603B198B
:100FB00002229A603B190022DA603A19A023DB056D
:100FC0001100180002F0A4FF21007B18C0221201BA
:100FD0001A600C003B1901225A603B1902229A60E8
:100FE0003B190022DA603B19124A1900100002F086
:100FF0008FFF21007B1820221A607B188422920325
:101000005A607B1801229A607A18A023DB05110030
:10101000180002F07DFF00220021072002F0BEFE32
:10102000072002F0D0FEC046BD4609B090BDC046C4
:10103000001002400004005080B582B000AF0200F2
:10104000BB1D1A80BB1D1B88202B0CD1084B1B78A5
:10105000002B08D0064B00221A70064B1B685B6AF7
:101060009AB2034BDA80C046BD4602B080BDC0468E
:10107000D40600208403002080B500AF904A914B35
:101080001000190004231A0006F00CF98C4B8E4A4C
:10109000043311000522180006F004F9884B0922D8
:1010A0008A499B180C22180006F0FCF8844B152284
:1010B00087499B180922180006F0F4F8854A864BE8
:1010C0001000190038231A0006F0ECF8834A872331
:1010D0005B00D35C180000F0F5FE03001900784BAC
:1010E0004D2299547D4A1023FF33D35C180000F041
:1010F000E9FE03001900724B4F229954784A794B4C
:101100001000190011231A0006F0CCF8734A1023BE
:10111000FF33D35C180000F0D5FE03001900684BC4
:1011200089229954704A714B100019000E231A003D
:1011300006F0B8F8694A1023FF33D35C180000F0BA
:10114000C1FE030019005E4B972299545C4B9C2210
:1011500067499B180E22180006F0A4F85F4A102376
:10116000FF33D35C180000F0ADFE03001900544BB0
:10117000A7229954524BAA225E499B180C221800B0
:1011800006F090F8554A87235B00D35C180000F006
:1011900099FE030019004A4BB3229954484BB622DA
:1011A00055499B180E22180006F07CF84B4A8723FD
:1011B0005B00D35C180000F085FE03001900404B73
:1011C000C12299543E4BC4224C499B181D22180041
:1011D00006F068F8414A87235B00D35C180000F0F2
:1011E00071FE03001900364BCE229954344B1E2257
:1011F00043499B180B22180006F054F8304B292263
:1012000040499B180C22180006F04CF82C4B352254
:101210003D499B180E22180006F044F8284BE122A5
:101220003A499B180D22180006F03CF8244BEE2298
:1012300037499B180B22180006F034F8204A262361
:10124000FF333449D3180922180006F02BF81C4B41
:10125000F92231499B181822180006F023F8184A81
:101260001223FF332D49D3181422180006F01AF860
:101270002B4A2C4B1000190009231A0006F012F813
:10128000294A2A4B100019000A231A0006F00AF80E
:10129000274A284B1000190009231A0006F002F80B
:1012A000254B0B222A21180006F005F8234B0B22B0
:1012B0002A21180005F0FFFFC046BD4680BDC0468C
:1012C00004010020187B00081C7B0008247B000818
:1012D000307B0008470100203C7B00084C020020C6
:1012E00083010020747B000893010020887B0008A4
:1012F000987B0008A87B0008B47B0008C47B00082A
:10130000E47B0008F07B0008FC7B00080C7C0008F4
:101310001C7C0008287C0008347C00084C7C0008F9
:101320003A020020607C0008420200206C7C000829
:1013300032020020787C00086A020020750200203A
:1013400080B500AF124B0C21180001F08BFF00F0AC
:10135000D3FBA023DB0501220121180002F056FF78
:10136000FA23DB00180002F061F8A023DB0500225D
:101370000121180002F04AFF064B07480822190015
:1013800000F014FC00F0D6FBC046BD4680BDC04650
:10139000847C00083A02002060EA000080B582B038
:1013A00000AF1D4B0D21180001F05CFF00F0A4FB05
:1013B000A023DB0501220121180002F027FF174BB3
:1013C000180002F033F8A023DB05002201211800E9
:1013D00002F01CFF00237B6015E01149FA23DB00BB
:1013E0000922180000F0E2FB0E4A86235B00D35C62
:1013F000022B05D10C4B1121180001F033FF05E041
:101400007B6801337B607B680E2BE6DD00F092FB8E
:10141000C046BD4602B080BD947C00088813000021
:10142000420200204C020020A47C000880B500AFDE
:10143000094B0A21180001F015FFA023DB0501224A
:101440000221180002F0E2FEFA239B00180001F0CE
:10145000EDFFC046BD4680BDB87C000880B500AF3A
:101460000C4B0B21180001F0FDFEA023DB05002230
:101470000221180002F0CAFEFA239B00180001F0B6
:10148000D5FF054A0E23FF330121D154C046BD4686
:1014900080BDC046C47C00084C02002090B5A1B0BD
:1014A00020AF164A0E23FF33D35C022B21D1144BFD
:1014B0001721180001F0D6FE00F01EFB114C0C2382
:1014C0001E93114B1D936B4618002300103374229A
:1014D000190005F0E7FE20686168A268E36800F083
:1014E00047FB094B09480C22190000F05FFB00F094
:1014F00021FBC046BD4601B090BDC0464C02002055
:10150000F87C0008C80400200D01002088130000AA
:1015100090B5A3B020AF1C4B0C21180001F0A2FE27
:1015200000F0EAFA194C09231E93194B1D936B46E0
:101530001800230010337422190005F0B3FE206850
:101540006168A268E36800F013FB00237B600FE092
:101550000F49FA23DB000922180000F027FB0D4A8F
:101560000C23FF33D35C022B06D07B6801337B60F6
:101570007B68042BECDD00E0C04600F0DBFAC046DF
:10158000BD4603B090BDC046107D0008C8040020D1
:10159000190100204C02002090B5A3B020AF1C4BD5
:1015A0000C21180001F05EFE00F0A6FA194C092388
:1015B0001E93194B1D936B461800230010337422A1
:1015C000190005F06FFE20686168A268E36800F00A
:1015D000CFFA00237B600FE00F49FA23DB000922DA
:1015E000180000F0E3FA0D4A0C23FF33D35C022B02
:1015F00006D07B6801337B607B68042BECDD00E068
:10160000C04600F097FAC046BD4603B090BDC04644
:10161000207D0008C8040020290200204C02002080
:1016200090B5A3B020AF1C4B1321180001F01AFE97
:1016300000F062FA194C3C231E93194B1D936B4624
:101640001800230010337422190005F02BFE2068C7
:101650006168A268E36800F08BFA00237B600FE00A
:101660000F49FA23DB003C22180000F09FFA0D4AD4
:101670000C23FF33D35C022B06D07B6801337B60E5
:101680007B68042BECDD00E0C04600F053FAC04656
:10169000BD4603B090BDC046307D0008C8040020A0
:1016A000470100204C02002090B5A3B020AF1C4B96
:1016B0001521180001F0D6FD00F01EFA194C102378
:1016C0001E93194B1D936B46180023001033742290
:1016D000190005F0E7FD20686168A268E36800F082
:1016E00047FA00237B600FE00F49FA23DB0010224A
:1016F000180000F05BFA0D4A0C23FF33D35C022B79
:1017000006D07B6801337B607B68042BECDD00E056
:10171000C04600F00FFAC046BD4603B090BDC046BB
:10172000447D0008C8040020830100204C020020F2
:1017300090B5A3B020AF1C4B0621180001F092FD1C
:1017400000F0DAF9194C04231E93194B1D936B46D4
:101750001800230010337422190005F0A3FD20683F
:101760006168A268E36800F003FA00237B600FE081
:101770000F49FA23DB000422180000F017FA0D4A83
:101780000C23FF33D35C022B06D07B6801337B60D4
:101790007B68042BECDD00E0C04600F0CBF9C046CE
:1017A000BD4603B090BDC0465C7D0008C804002063
:1017B000040100204C02002090B5A3B020AF1C4BC8
:1017C0001421180001F04EFD00F096F9194C0E237B
:1017D0001E93194B1D936B4618002300103374227F
:1017E000190005F05FFD20686168A268E36800F0F9
:1017F000BFF900237B600FE00F49FA23DB000E22C4
:10180000180000F0D3F90D4A0C23FF33D35C022BF0
:1018100006D07B6801337B607B68042BECDD00E045
:10182000C04600F087F9C046BD4603B090BDC04633
:10183000647D0008C8040020A00100204C020020A4
:1018400090B5A3B020AF1C4B0C21180001F00AFD8D
:1018500000F052F9194C0C231E93194B1D936B4643
:101860001800230010337422190005F01BFD2068B6
:101870006168A268E36800F07BF900237B600FE0F9
:101880000F49FA23DB000C22180000F08FF90D4AF3
:101890000C23FF33D35C022B06D07B6801337B60C3
:1018A0007B68042BECDD00E0C04600F043F9C04645
:1018B000BD4603B090BDC0467C7D0008C804002032
:1018C000AE0100204C02002090B5A3B020AF1C4B0D
:1018D0000D21180001F0C6FC00F00EF9194C0E2382
:1018E0001E93194B1D936B4618002300103374226E
:1018F000190005F0D7FC20686168A268E36800F071
:1019000037F900237B600FE00F49FA23DB000E223A
:10191000180000F04BF90D4A0C23FF33D35C022B67
:1019200006D07B6801337B607B68042BECDD00E034
:10193000C04600F0FFF8C046BD4603B090BDC046AB
:101940008C7D0008C8040020BA0100204C02002051
:1019500090B5A3B020AF1C4B1121180001F082FC00
:1019600000F0CAF8194C1D231E93194B1D936B46AA
:101970001800230010337422190005F093FC20682E
:101980006168A268E36800F0F3F800237B600FE071
:101990000F49FA23DB001D22180000F007F90D4A59
:1019A0000C23FF33D35C022B06D07B6801337B60B2
:1019B0007B68042BECDD00E0C04600F0BBF8C046BD
:1019C000BD4603B090BDC0469C7D0008C804002001
:1019D000C80100204C02002090B5A3B020AF1E4BE0
:1019E0000C21180001F03EFC1C4B00229A7200F002
:1019F00083F81B4CD7231E931A4B1D936B4618007C
:101A0000230010337422190005F04CFC2068616833
:101A1000A268E36800F0ACF800237B6013E0124991
:101A2000FA23DB000822180000F0C0F80F4A0C234C
:101A3000FF33D35C022B03D1084B00225A7205E01E
:101A40007B6801337B607B68092BE8DD00F072F86E
:101A5000C046BD4603B090BDB07D000824080020FC
:101A6000C804002080020020320200204C02002026
:101A700090B5A3B020AF1C4B0F21180001F0F2FB72
:101A800000F03AF8194C0D231E93194B1D936B4629
:101A90001800230010337422190005F003FC20689D
:101AA0006168A268E36800F063F800237B600FE0E0
:101AB0000F49FA23DB000D22180000F077F80D4AD9
:101AC0000C23FF33D35C022B06D07B6801337B6091
:101AD0007B68042BECDD00E0C04600F02BF8C0462C
:101AE000BD4603B090BDC046C07D0008C8040020BC
:101AF000930100204C02002080B500AF0C4A8123E6
:101B00005B000021D1540A4A0223FF330021D15443
:101B100080235A00064B2A21180005F0CCFB044A0A
:101B200081235B000121D154C046BD4680BDC04623
:101B30004C05002080B500AF0C4A81235B000021DA
:101B4000D15480235A00094B2A21180005F0B3FB19
:101B5000064A0223FF330021D154044A81235B004B
:101B60000021D154C046BD4680BDC0464C05002072
:101B700084B0B0B500AF10257C1920606160A26010
:101B8000E360882310229446BC4463441B789AB2D5
:101B900001235B42942179180968781904F010F840
:101BA000C046BD46B0BC08BC04B0184780B586B07E
:101BB00000AFF860B960FB1D1A706A4A0C23FF334E
:101BC0000121D154674A86235B000121D154FB686F
:101BD000180001F02BFC644BC421180001F042FBFB
:101BE00000F024F95F4A0C23FF33D35C012B05D1AD
:101BF0005E4B0D21180001F035FB37E0594A0C23EC
:101C0000FF33D35C022B0AD1564A0E23FF33022145
:101C1000D154574B0C21180001F024FB26E0514A07
:101C20000C23FF33D35C032B0AD14E4A0E23FF3320
:101C30000221D1544F4B0E21180001F013FB15E087
:101C4000484A0C23FF33D35C042B0AD1454A0E23A8
:101C5000FF330221D154484B0E21180001F002FB42
:101C600004E0464B1221180001F0FCFABA68444B1C
:101C70009A4217D13B4A0C23FF33D35C022B11D17C
:101C800000237B610BE07B690A33374AD15C354A1C
:101C90007B69D3180A1C1A707B6901337B617B69ED
:101CA0000E2BF0DDBA68374B9A4218D12D4A0C231F
:101CB000FF33D35C022B12D100233B610CE03B6964
:101CC0000A33294AD15C274A3B69D3180F330A1CCF
:101CD0001A703B6901333B613B690E2BEFDDBA683B
:101CE000294B9A4217D1294B04221900002000F0F9
:101CF0005DF8031E0FD01B4A86235B000321D154DD
:101D0000234B01229A72224B0022DA72214B1421BA
:101D1000180001F0A7FABA681F4B9A4207D0BA68B8
:101D20001E4B9A4203D0BA681D4B9A4216D11D4BE6
:101D300004221900002000F039F8031E0ED0094AD1
:101D400086235B000221D154064A0E23FF33012172
:101D5000D154154B1421180001F084FAC046BD4639
:101D600006B080BD4C0200204C050020D07D00084C
:101D7000E07D0008EC7D0008FC7D00080C7E00087A
:101D8000190100202902002093010020207E000874
:101D900024080020287E00080D0100203A020020BF
:101DA000420200203C7E0008447E000880B584B0DA
:101DB00000AF39601100FB1D021C1A70BB1D0A1C0C
:101DC0001A700F23FB1800221A70FB1D1B78BB60D2
:101DD00021E0154ABB68D3181A780F203B181B78EE
:101DE0003968CB181B789A4205D13B181A783B18F2
:101DF00001321A7003E00F23FB1800221A700F2320
:101E0000FA18BB1D12781B789A4201D1012306E013
:101E1000BB680133BB60BB68FF2BDAD90023180015
:101E2000BD4604B080BDC0464C05002080B584B0DE
:101E300000AF204A0C23FF330121D1540C203B1862
:101E40001D4A1188198092789A703B1D1B4A1168AF
:101E5000196092889A803B00194A1A603B18022246
:101E600019000020FFF7A2FF031E04D0114A0C2323
:101E7000FF330221D1543B1D052219000020FFF73A
:101E800095FF031E04D00B4A0C23FF330321D154CA
:101E90003B00032219000020FFF788FF031E04D037
:101EA000044A0C23FF330421D154C046BD4604B07C
:101EB00080BDC0464C0200205C7E0008607E0008A9
:101EC0005244590080B584B000AF0200FB1D1A7067
:101ED0000F23FB1831221A70FB1D1B78092B36D8F3
:101EE0009A001F4BD3181B689F460F23FB18302204
:101EF0001A702DE00F23FB1831221A7028E00F23EF
:101F0000FB1832221A7023E00F23FB1833221A70B9
:101F10001EE00F23FB1834221A7019E00F23FB1860
:101F200035221A7014E00F23FB1836221A700FE0C6
:101F30000F23FB1837221A700AE00F23FB183822F0
:101F40001A7005E00F23FB1839221A7000E0C04612
:101F50000F23FB181B781800BD4604B080BDC04697
:101F6000947F000880B500AF01F0F0F900F042F86E
:101F7000FEF7DAFF00F06AFD00F074FE00F0F6FEF6
:101F800000F024FFFEF7BCFE00F0D6FF01F006F9DA
:101F9000134B180001F04AFA124B0921180001F006
:101FA00061F9114B0B21180001F05CF9FA239B0039
:101FB000180001F03BFA0D4B1B78002B01D000F00C
:101FC00095F80A4B00221A70094B0A21180001F0FB
:101FD00049F901F04FFA0121012002F05FF9E0E731
:101FE00088130000687E0008747E00085C030020EF
:101FF000807E000890B59DB000AF38243B191800D2
:1020000038231A00002105F056F92423FB18180084
:1020100014231A00002105F04EF93B001800242378
:102020001A00002105F047F92D4B1B682D4A1A4074
:102030002B4B802109010A431A6002F021F92A4B37
:102040001A6D294B27490A401A653B1906221A6066
:102050003B19802252009A603B190122DA603B1939
:1020600010221A613B1900229A623B19180002F0F3
:1020700071F9031E01D000F0E3FC24217B180F222C
:102080001A607B1801225A607B1800229A607B1824
:102090000022DA607B1800221A617B1800211800E8
:1020A00002F02CFD031E01D000F0CAFC3B002322ED
:1020B0001A603B0000229A603B000022DA603B007D
:1020C000802252025A603B00180002F03BFF031EC0
:1020D00001D000F0B5FCC046BD461DB090BDC04665
:1020E00000700040FFE7FFFF0010024080B582B0A3
:1020F00000AF4B4B0721180001F0B4F8494B012207
:102100005A73494B0A21180001F0ACF8474B1800EC
:1021100001F040FB464B180001F088F9414B9B68E9
:10212000181CFEF7B9F903009AB2424B9A803D4B56
:102130005B68DAB23F4B9A713E4B9B79642B09D9AD
:102140003C4B9B7964211800FEF76EF80B00DAB265
:10215000384B9A71384B0B21180001F083F8314B42
:1021600000225A73334B1B7A002B0CD0314BDB7996
:102170000133DAB22F4BDA712E4BDB79022B02D905
:102180002C4B00221A722B4BDB7A0133DAB2294B2B
:10219000DA72284BDB7A052B02D9264B0022DA7241
:1021A000244B1B7A002B05D0244B1121180001F081
:1021B00059F804E0224B1221180001F053F81D4B8E
:1021C0005B7A002B05D01F4B1421180001F04AF850
:1021D00004E01D4B1621180001F044F8154B9B7AC2
:1021E000002B05D0194B1021180001F03BF804E03A
:1021F000174B1121180001F035F80E4B5B78002BBE
:1022000054D10C4B9B78172B02D90A4B00229A70A1
:10221000084B9B78002B2ED100237B6025E0C04625
:102220008C7E000898000020947E0008A800002002
:10223000B80B000024080020A07E0008AC7E000837
:10224000C07E0008D47E0008EC7E0008047F0008F1
:10225000187F0008954A7B680C335B00D318043361
:1022600000221A807B6801337B60904B9B881A00A8
:102270007B689342EEDB00F0C5FEFA239B0018005A
:1022800001F0D4F800F008FFFA239B00180001F0D9
:10229000CDF800F0CFFEFA239B00180001F0C6F83D
:1022A000834B9B780133DAB2814B9A70804B5B7819
:1022B0000133DAB27E4B5A707D4B5B78052B02D925
:1022C0007B4B00225A707A4B1B78002B14D0784B32
:1022D0009B794F2B10D8764B1B7A002B0CD1744B6B
:1022E0005B7A012B03D1724B1B78062B04D0704B09
:1022F0009B7A012B00D0C7E06D4B00221A70FEF7CD
:10230000BBFE6C4B0C21180000F0ACFF684B9B7AB5
:10231000002B1FD1FFF78AF8FA239B00180001F069
:1023200085F8FFF70DF8FA239B00180001F07EF8FE
:10233000614A86235B00D35C022B0BD15F4B0E21DD
:10234000180000F08FFFFEF7FBFFFA239B00180038
:1023500001F06CF8564B01225A72FFF7E9F9FA23A3
:102360009B00180001F062F8FFF7D2F8FA239B00F7
:10237000180001F05BF8FFF70FF9FA239B00180033
:1023800001F054F800F09EF8FA239B00180001F0C9
:102390004DF8FFF7DDFAFA239B00180001F046F82C
:1023A000FFF74EFAFA239B00180001F03FF8FFF701
:1023B00037F9FA239B00180001F038F8FFF774F999
:1023C000FA239B00180001F031F8FFF705FBFA2310
:1023D0009B00180001F02AF8FFF74AFBFA239B0044
:1023E000180001F023F8FFF7E7F9FA239B00180023
:1023F00001F01CF8FFF768FAFA239B00180001F0BF
:1024000015F82B4B9B7A002B0FD1FEF7C7FFFA2351
:102410009B00180001F00AF8FFF740F8FA239B0030
:10242000180001F003F8FFF719F8254B0B211800ED
:1024300000F018FF204A87235B00D35C0133D9B238
:102440001D4A87235B00D1541B4A1023FF33D35C02
:102450000133D9B2184A1023FF33D154164A8723C7
:102460005B00D35C082B04D9134A87235B0001214E
:10247000D154114A87235B00D35C082B04D90E4A40
:102480001023FF330021D154094B1B780133DAB2FA
:10249000074B1A70064B1B78172B02D9044B0022EE
:1024A0001A70C046BD4602B080BDC046D4060020AA
:1024B000240800202C7F00084C0200203C7F0008EC
:1024C0004C7F0008B0B586B000AFBB4BD7222A21A5
:1024D000180004F0F0FEB94B0D21180000F0C2FE08
:1024E000B74B342255219954B54B35224C21995480
:1024F000B34B362254219954B14B3722232199549E
:1025000004237B6111E07B6930331A00AC4BD31894
:10251000181D7B69043BAA4AD35C1A00A94B190019
:1025200004F0D2FE7B6901337B617B69122BEADD0B
:10253000A34B472223219954A34B9B791A00FA23DA
:1025400099001000FDF75AFF0B00DBB21C009E4BF8
:102550009B7964211800FDF767FE0B00DBB2E31ADC
:1025600064211800FDF764FE03001A009749984B98
:10257000180004F0A9FE944B9B7964211800FDF724
:1025800053FE0B00DBB21C008F4B9B790A21180015
:10259000FDF74AFE0B00DBB2E31A0A211800FDF733
:1025A00047FE03001A0089498A4B180004F08CFE8C
:1025B000854B9B790A211800FDF736FE0B00DBB234
:1025C0001A008249844B180004F07EFE7C4B4B229B
:1025D000232199547C4B9B881C007B4B9B88FA22BF
:1025E00091001800FDF720FE0B009BB2E31AFA22BF
:1025F00091001800FDF71CFE03001A007349774B89
:10260000180004F061FE704B9B88FA2291001800BC
:10261000FDF70AFE0B009BB21C006B4B9B886421EC
:102620001800FDF701FE0B009BB2E31A64211800AD
:10263000FDF7FEFD03001A006449694B180004F021
:1026400043FE614B9B8864211800FDF7EDFD0B00F4
:102650009BB21C005C4B9B880A211800FDF7E4FD2F
:102660000B009BB2E31A0A211800FDF7E1FD0300FD
:102670001A0056495B4B180004F026FE524B9B880B
:102680000A211800FDF7D0FD0B009BB21A004F493C
:10269000554B180004F018FE494B50222321995441
:1026A00000233B6113E03B691D3330331A00444B78
:1026B000D318181D424A3B69D3181E331B781A00E1
:1026C000404B190004F000FE3B6901333B613B695C
:1026D0000A2BE8DD3A4B5C22232199540023FB604E
:1026E00014E0FB68293330331A00354BD318181D1A
:1026F000334A2921FB68D3185B181B781A00314B29
:10270000190004F0E1FDFB680133FB60FB680A2B54
:10271000E7DD2B4B6822232199543523BB6012E05F
:10272000BB6830331A00264BD318181DBB68353BE5
:10273000234AD318DB7B1A00224B190004F0C4FD96
:10274000BB680133BB60BB68432BE9DD1C4B7822BF
:10275000232199541C4B9B7864211800FDF764FDDC
:102760000B00DBB21C00184B9B780A211800FDF708
:102770005BFD0B00DBB2E31A0A211800FDF758FDE0
:1027800003001A001149194B180004F09DFD0E4B6F
:102790009B780A211800FDF747FD0B00DBB21A00F9
:1027A0000A49134B180004F08FFDFB1D47221A70D5
:1027B0003B1D00221A8026E180020020587F00087D
:1027C0004C020020687F0008240800206C7F00086D
:1027D000940200209502002096020020980200201A
:1027E000990200209A0200209B020020C5020020CE
:1027F000C6020020FB1D1B788B4A3421D3185B18BE
:1028000023221A70FB1D1A78FB1D01321A70FB1D62
:102810001B7830331A00844BD3181C1D3B1D1B88BA
:10282000824A0C335B00D31804331B88804918009C
:10283000FDF7E4FD0B009BB21D003B1D1B887B4A8E
:102840000C335B00D31804331B887A491800FDF75A
:10285000EBFC0B009BB2EB1A76491800FDF7E8FC85
:1028600003001A00744B1900200004F02DFDFB1D1D
:102870001A78FB1D01321A70FB1D1B7830331A00C9
:10288000694BD3181C1D3B1D1B88684A0C335B0029
:10289000D31804331B8867491800FDF7C5FC0B00EB
:1028A0009BB21D003B1D1B88604A0C335B00D31894
:1028B00004331B88FA2291001800FDF7B5FC0B00C9
:1028C0009BB2EB1AFA2291001800FDF7B1FC03004D
:1028D0001A00594B1900200004F0F6FCFB1D1A7871
:1028E000FB1D01321A70FB1D1B7830331A004E4B52
:1028F000D3181C1D3B1D1B884C4A0C335B00D3189E
:1029000004331B88FA2291001800FDF78DFC0B00A0
:102910009BB21D003B1D1B88444A0C335B00D3183F
:1029200004331B8864211800FDF77EFC0B009BB26A
:10293000EB1A64211800FDF77BFC03001A003E4BE4
:102940001900200004F0C0FCFB1D1A78FB1D0132A9
:102950001A70FB1D1B7830331A00334BD3181C1D23
:102960003B1D1B88314A0C335B00D31804331B8892
:1029700064211800FDF758FC0B009BB21D003B1DA5
:102980001B882A4A0C335B00D31804331B880A21A6
:102990001800FDF749FC0B009BB2EB1A0A21180046
:1029A000FDF746FC03001A00234B1900200004F039
:1029B0008BFCFB1D1A78FB1D01321A70FB1D1B7866
:1029C00030331A00184BD3181C1D3B1D1B88174AA7
:1029D0000C335B00D31804331B880A211800FDF761
:1029E00023FC0B009BB21A00134B1900200004F0CB
:1029F0006BFCFB1D1A78FB1D01321A703B1D1A88F7
:102A00003B1D01321A80094B9B883A1D12889A425D
:102A100000D2EFE6094BD721180000F023FCC04696
:102A2000BD4606B0B0BDC0464C020020D406002012
:102A3000A0860100102700006C7F000880020020A3
:102A400080B500AF72B6C046FEE7000080B500AFAB
:102A5000164B174A1A60154B00225A60134B7F22FF
:102A60009A60124BFF22DA60104B00221A610F4B62
:102A700000225A610D4B00229A610C4B0022DA6150
:102A80000A4B180002F0B4FB031E01D0FFF7D8FF79
:102A900096239900054B0422180002F099FC031EAE
:102AA00001D0FFF7CDFFC046BD4680BD60030020CA
:102AB0000028004080B582B000AF78607B681B685A
:102AC0000A4A93420ED10A4B1A6D094B8021C90262
:102AD0000A431A6500220021022001F05FF902205A
:102AE00001F071F9C046BD4602B080BD002800402B
:102AF0000010024080B582B000AF7860074B012221
:102B00001A70074B4C2200219954FFF773FA00F01A
:102B1000BFFCC046BD4602B080BDC0465C0300207D
:102B2000D406002080B500AF074B5A6B064B01213D
:102B30000A435A63044B9A6B034B802149050A43AD
:102B40009A63C046BD4680BD0010024080B500AF0C
:102B5000FEE780B500AFFEE780B500AFC046BD46DA
:102B600080BD80B500AFC046BD4680BD80B500AF1A
:102B700000F040FCC046BD4680BD000080B500AFFF
:102B8000034B180002F0EAFCC046BD4680BDC046BB
:102B90006003002080B500AF202001F055FBC04647
:102BA000BD4680BD80B500AF034B180000F070FE3D
:102BB000C046BD4680BDC046A800002080B500AF1D
:102BC000034B180003F00CF9C046BD4680BDC0465B
:102BD000C804002080B500AF034B180003F000F9D3
:102BE000C046BD4680BDC0465006002080B586B0B8
:102BF00000AF7860144A154BD31A7B617B693B6147
:102C0000134B1B68002B02D1114B124A1A60104B58
:102C10001A687B68D3183A699A4207D204F018FB05
:102C200003000C221A6001235B4209E0084B1B6879
:102C3000FB60074B1A687B68D218054B1A60FB686B
:102C40001800BD4606B080BD005000200004000002
:102C50008C0000204808002080B500AFC046BD466B
:102C600080BD000080B586B000AF0823FB181800B7
:102C700010231A00002104F01EFB3B00180008235B
:102C80001A00002104F017FB1E4B8022D2051A60A7
:102C90001C4B0F225A601B4B00229A60194B1A4A98
:102CA000DA60184B00221A61164B00225A61154B4C
:102CB000180002F07DFC031E01D0FFF7C1FE0821C1
:102CC0007B18802252011A607A180E4B11001800EE
:102CD00002F0F8FC031E01D0FFF7B2FE3B00002219
:102CE0001A603B0000225A603A00064B110018009F
:102CF00002F0B4FE031E01D0FFF7A2FEC046BD469F
:102D000006B080BD84030020FEFF000080B582B0C5
:102D100000AF78607B681A688023DB059A4205D192
:102D2000044B9A6B034B01210A439A63C046BD468C
:102D300002B080BD0010024080B582B000AF02003A
:102D4000BB1D1A80084B1B6800225A62C046064B06
:102D50001B685A6ABB1D1B889A42F8D3C046C046FE
:102D6000BD4602B080BDC0468403002080B500AFE0
:102D7000144B154A1A60134BE12252025A60114B50
:102D800000229A600F4B0022DA600E4B00221A617B
:102D90000C4B0C225A610B4B00229A61094B00220A
:102DA000DA61084B00221A62064B00225A62054B78
:102DB000180002F0B1FE031E01D0FFF741FEC0462D
:102DC000BD4680BDC80400200038014080B500AF7A
:102DD000144B154A1A60134BE12252025A60114BF0
:102DE00000229A600F4B0022DA600E4B00221A611B
:102DF0000C4B0C225A610B4B00229A61094B0022AA
:102E0000DA61084B00221A62064B00225A62054B17
:102E1000180002F081FE031E01D0FFF711FEC0462C
:102E2000BD4680BD500600200044004090B58BB0E8
:102E300000AF786014243B19180014231A000021F5
:102E400004F039FA7B681B68384A934233D1384B17
:102E50005A6B374B8021C9010A435A63344BDA6AF3
:102E6000334B01210A43DA62314BDB6A0122134002
:102E70003B613B693B19C022D2001A6021007B18DC
:102E800002225A607B1800229A607B180322DA60C3
:102E90007B1804221A617A18A023DB0511001800A0
:102EA00001F036F8002200211B2000F077FF1B20E4
:102EB00000F089FF36E07B681B681E4A934231D1DF
:102EC0001B4B9A6B1A4B802189020A439A63184B59
:102ED000DA6A174B01210A43DA62154BDB6A0122D9
:102EE0001340FB60FB6814217B180C221A607B18CE
:102EF00002225A607B1800229A607B180322DA6053
:102F00007B1804221A617A18A023DB05110018002F
:102F100000F0FEFF002200211C2000F03FFF1C20DB
:102F200000F051FFC046BD460BB090BD00380140D7
:102F3000001002400044004080B500AF0749084B34
:102F40000122180002F0E4FE0649074B0122180096
:102F500002F0DEFEC046BD4680BDC0464C060020E5
:102F6000C8040020C40400205006002080B582B0B0
:102F700000AF78607B681B681C4A934225D11C4ACD
:102F800081235B00D35C002B1FD0194A0223FF333F
:102F9000D35C1900164A80235B00D25C144B5A5450
:102FA000134A0223FF33D35C0133D9B2104A022300
:102FB000FF33D1540E4A0223FF33D35CFF2B04D1DD
:102FC0000B4A0223FF330021D1540A490A4B012244
:102FD000180002F09DFE0949094B0122180002F079
:102FE00097FEC046BD4602B080BDC04600380140D5
:102FF0004C0500204C060020C8040020C40400201A
:103000005006002080B500AF80231B010748012235
:10301000190001F0FBF8642000F008FA044B0A21C3
:10302000180000F01FF9C046BD4680BD00040050E6
:10303000707F000880B500AF80231B010748002285
:10304000190001F0E3F8642000F0F0F9044B0B21C3
:10305000180000F007F9C046BD4680BD00040050CE
:103060007C7F000880B500AF8023DB000948012287
:10307000190001F0CBF8FA235B001800FFF75CFEA3
:103080008023DB0003480022190001F0BFF8C0468E
:10309000BD4680BD0004005080B584B000AF3B4BFE
:1030A0000B21180000F0DEF80F23FB1800221A7025
:1030B0000C23FB1800221A802FE0354B0022DA8007
:1030C000334B00221A70FFF7CDFFFA23DB00180004
:1030D000FFF732FE2E4B01221A702E4B1800FFF71D
:1030E0002BFE2B4B00221A70294BDB880F203A183D
:1030F0001278FA21C9008C46634499B2244B0432F9
:103100005200D1523B181A783B1801321A700C2128
:103110007B181A887B1801321A801D4B5B880C22A1
:10312000BA1812889A42C8D30023BB60BB1D002284
:103130001A800EE0BB1D1A88154B04325200D35A78
:103140001A00BB689B18BB60BB1D1A88BB1D0132EF
:103150001A800F4B5B88BA1D12889A42EAD3BB686B
:103160000A211800FCF7DAFF03001A003B1D1A8041
:10317000094B9B78064A0C335B00D31804333A1D85
:1031800012881A80C046BD4604B080BD887F000802
:10319000D4060020606D00002408002080B582B0B5
:1031A00000AF2A4B180002F043FA294B0A225A803A
:1031B000274B18229A80264B0022DA80254A872343
:1031C0005B000121D154234A1023FF330021D15445
:1031D000FDF752FF00237B600DE01E4A7B68D31889
:1031E0002A221A701B4A7B68D3180F332A221A70BE
:1031F0007B6801337B607B680E2BEEDD164B012272
:103200001A70164B00225A72144B00221A70134B7C
:1032100000229A70114B00225A70104B0022DA7172
:103220000E4B00229A720D4B0022DA720B4B0122D8
:103230001A720B4B01225A73064A0E23FF330121E7
:10324000D154C046BD4602B080BDC04684030020B4
:10325000D40600204C0200205C030020240800203B
:103260009800002080B584B000AF78600A00FB1C95
:103270001A70FB1C1B78FA2B02D9FB1CFA221A705D
:10328000FB1C1B7802331A00194B2D21180004F087
:1032900012F80023FB600BE0FB687A68D3181978FA
:1032A000134AFB68D3180A1C1A70FB680133FB60D1
:1032B000FB1C1B78FA689A42EEDBFB1C1B780C4A5D
:1032C0000D21D154FB1C1B780133094A0A21D1542A
:1032D000FB1C1B789BB202339AB201235B42044968
:1032E000044802F06DFCC046BD4604B080BDC04637
:1032F00024070020500600200D4885460D480E4941
:103300000E4A002302E0D458C4500433C4188C423F
:10331000F9D30B4A0B4C002301E013600432A242A4
:10332000FBD3FFF799FC03F099FFFEF71BFEFEE7C6
:103330000050002000000020700000206C80000879
:103340007000002044080020FEE7000080B582B035
:1033500000AFFB1D00221A700B4B1A680A4B40216C
:103360000A431A60032000F011F8031E03D0FB1D6E
:1033700001221A7001E0FFF7D5FBFB1D1B78180036
:10338000BD4602B080BDC0460020024090B583B06B
:1033900000AF7860144B1C68144B1B781900FA239B
:1033A0009800FCF7BBFE030019002000FCF7B6FEF6
:1033B0000300180000F017FD031E01D001230FE0E9
:1033C0007B68032B0BD8796801235B42002218002D
:1033D00000F0E4FC064B7A681A60002300E0012349
:1033E0001800BD4603B090BD00000020080000207A
:1033F0000400002080B500AF054B1B781A00054B78
:103400001B68D218034B1A60C046BD4680BDC0463B
:10341000080000203008002080B500AF024B1B6878
:103420001800BD4680BDC0463008002080B584B07D
:1034300000AF7860FFF7F0FF0300BB607B68FB60C4
:10344000FB68013305D00A4B1B781A00FB689B18F8
:10345000FB60C046FFF7E0FF0200BB68D31AFA68C2
:103460009A42F7D8C046C046BD4604B080BDC046AB
:103470000800002080B500AF044B1A68034B0221FE
:103480008A431A60C046BD4680BDC04610E000E0D9
:1034900080B500AF044B1A68034B02210A431A603F
:1034A000C046BD4680BDC04610E000E080B582B099
:1034B00000AF78607B68002B01D1012359E17B6864
:1034C0005B6D002B0AD17B6800229A657B685022D5
:1034D000002199547B681800FDF786FC7B685B6DC2
:1034E00010221340102B05D07B681B689B680422B8
:1034F00013400BD07B685B6D10221A437B685A65C2
:103500007B68502200219954012332E17B685B6D76
:103510009A4A134002221A437B685A657B681B68EB
:103520009B6803221340012B08D17B681B681B6832
:1035300001221340012B01D1012300E00023002BC5
:1035400049D17B685A68C0231B069A420BD07B681E
:103550005A688023DB059A4205D07B685A6880232D
:103560001B069A4211D17B681B681A697B681B682D
:10357000920092081A617B681B6819697B685A6817
:103580007B681B680A431A6114E07B681B681A6930
:103590007B681B68920092081A61794B1A68784B15
:1035A00078490A401A60764B19687B685A68744BF0
:1035B0000A431A607B681B68DA687B681B681821FD
:1035C0008A43DA607B681B68D9687B689A687B6885
:1035D0001B680A43DA606A4B1A68694B6A490A40F9
:1035E0001A60674B19687B685B6B5A06644B0A4329
:1035F0001A607B681B689A6880235B05134008D1BA
:103600007B681B689A687B681B68802149050A43B0
:103610009A607B681B68DA687B681B685B490A40B4
:10362000DA607B681B68D9687B68DA687B681B692D
:10363000022B01D1042300E000231A437B682020E1
:103640001B5C5B031A437B682C201B5C5B001A43EA
:103650007B681B6B1A437B689B699B031A437B68DF
:10366000DB69DB031A437B681B680A43DA607B680B
:103670005A6AC223FF339A420BD07B681B68D96811
:103680007B685A6A7B689B6A1A437B681B680A439B
:10369000DA607B6821229B5C012B1AD17B68202297
:1036A0009B5C002B09D17B681B68DA687B681B6810
:1036B000802149020A43DA600BE07B685B6D2022BF
:1036C0001A437B685A657B689B6D01221A437B68AD
:1036D0009A657B68DB6B012B1FD17B681B681A69BD
:1036E0007B681B682A490A401A617B681B68196954
:1036F0007B681A6C7B685B6C1A437B689B6C1A4313
:103700007B681B680A431A617B681B681A697B68BF
:103710001B6801210A431A610EE07B681B681B6964
:1037200001221340012B07D17B681B681A697B6853
:103730001B6801218A431A617B681B685A697B6890
:103740001B6807218A435A617B681B6859697B683B
:103750009A6B7B681B680A435A617B6800229A65F2
:103760007B685B6D0322934301221A437B685A6591
:1037700000231800BD4602B080BDC046FDFEFFFF1D
:1037800008270140FFFFC3FFFFFFFFFD1902FEFFF7
:1037900003FCFFFF90B585B000AF78600F23FB18E6
:1037A00000221A707B681B689B680422134056D164
:1037B0007B6850229B5C012B01D1022356E07B6881
:1037C0005022012199547B68DB69012B07D00F231C
:1037D000FC187B68180000F0ADF9030023700F237C
:1037E000FB181B78002B3ED17B685B6D214A134090
:1037F000802252001A437B685A657B6800229A65D2
:103800007B685022002199547B681B681C221A6037
:103810007B685B69082B10D17B681B685A687B68E2
:103820001B6804218A435A607B681B685A687B685E
:103830001B6818210A435A6008E07B681B685A68B5
:103840007B681B681C210A435A60C0467B681B6862
:103850009A687B681B6804210A439A6003E00F237F
:10386000FB1802221A700F23FB181B781800BD46A4
:1038700005B090BDFEF0FFFF80B582B000AF78606C
:103880007B681B681B6C1800BD4602B080BD000041
:1038900080B582B000AF78607B681B681B6804222B
:1038A0001340042B06D17B681B685B68042213401D
:1038B000042B0DD07B681B681B6808221340082B63
:1038C00054D17B681B685B6808221340082B4DD1DC
:1038D0007B685B6D1022134006D17B685B6D802294
:1038E00092001A437B685A657B681B68DA68C023BC
:1038F0001B0113402ED17B6820229B5C002B29D119
:103900007B681B681B6808221340082B22D17B6848
:103910001B689B680422134010D17B681B685A689F
:103920007B681B680C218A435A607B685B6D354A53
:10393000134001221A437B685A650BE07B685B6D7C
:1039400020221A437B685A657B689B6D01221A43CB
:103950007B689A657B681800FDF766FA7B689B694F
:10396000012B03D07B681B680C221A607B681B68E4
:103970001B6880221340802B15D17B681B685B6815
:1039800080221340802B0ED17B685B6D8022520217
:103990001A437B685A657B68180000F035F87B682D
:1039A0001B6880221A607B681B681B68102213400A
:1039B000102B23D17B681B685B6810221340102BEF
:1039C0001CD17B681B6B002B06D07B681B68DB68F7
:1039D00001221340012B0DD17B689B6D02221A43FB
:1039E0007B689A657B681B6810221A607B681800E8
:1039F00000F012F87B681B6810221A60C046BD46B2
:103A000002B080BDFEFEFFFF80B582B000AF7860DF
:103A1000C046BD4602B080BD80B582B000AF7860C0
:103A2000C046BD4602B080BD80B582B000AF7860B0
:103A300039607B6850229B5C012B01D102236CE032
:103A40007B685022012199547B681B689B68042283
:103A500013400BD07B685B6D20221A437B685A654C
:103A60007B68502200219954012356E03B685B6833
:103A70002C4A934228D07B681B68996A3B681B6874
:103A80005B035A0B7B681B680A439A623B681A689F
:103A90008023DB02134009D0234B1A68224B80217C
:103AA00009040A431A600A2000F0ACF83B681A685F
:103AB00080239B0213402BD01B4B1A681A4B80218A
:103AC000C9030A431A6023E07B681B689A6A3B6853
:103AD0001B685B035B0BD9437B681B680A409A62D7
:103AE0003B681A688023DB02134005D00E4B1A682E
:103AF0000D4B0E490A401A603B681A6880239B02EE
:103B0000134005D0084B1A68074B09490A401A6050
:103B10007B6850220021995400231800BD4602B052
:103B200080BDC0460110000008270140FFFF7FFF55
:103B3000FFFFBFFF80B584B000AF78600023FB605B
:103B40007B681B689B6803221340012B08D17B68AC
:103B50001B681B6801221340012B01D1012300E0E7
:103B60000023002B46D17B681B689B68244A1340C6
:103B70000DD07B685B6D10221A437B685A657B68A9
:103B80009B6D01221A437B689A65012333E07B68B1
:103B90001B689A687B681B6801210A439A600120B0
:103BA00000F030F8FFF738FC0300FB601BE0FFF784
:103BB00033FC0200FB68D31A0A2B14D97B681B68FC
:103BC0001B6801221340012B0DD07B685B6D102216
:103BD0001A437B685A657B689B6D01221A437B6898
:103BE0009A65012307E07B681B681B68012213406C
:103BF000012BDCD100231800BD4604B080BDC046B7
:103C00001700008080B584B000AF78600B4B1B6854
:103C10000B491800FCF782FA03001A007B68534333
:103C2000FB6002E0FB68013BFB60FB68002BF9D105
:103C3000C046C046BD4604B080BDC046000000205E
:103C400040420F0080B582B000AF0200FB1D1A7029
:103C5000FB1D1B787F2B09D8FB1D1B781A001F2327
:103C60001A40044B012191400A001A60C046BD462B
:103C700002B080BD00E100E090B583B000AF02006B
:103C80003960FB1D1A70FB1D1B787F2B28D82F4A2B
:103C9000FB1D1B785BB29B08C0339B009B58FA1D31
:103CA0001278110003220A40D200FF2191400A003D
:103CB000D2431A4011003B689B01FF221A40FB1DB2
:103CC0001B78180003230340DB009A401F48FB1DAC
:103CD0001B785BB29B080A43C0339B001A5031E04B
:103CE0001B4AFB1D1B7819000F230B40083B9B0848
:103CF00006339B00D31804331B68FA1D1278110099
:103D000003220A40D200FF2191400A00D2431A4008
:103D100011003B689B01FF221A40FB1D1B78180015
:103D200003230340DB009A400948FB1D1B781C005D
:103D30000F232340083B9B080A4306339B00C3180C
:103D400004331A60C046BD4603B090BD00E100E0F8
:103D500000ED00E080B582B000AF78607B685A1E4D
:103D600080235B049A4201D3012310E00A4B7A6856
:103D7000013A5A6001235B4203211800FFF77CFFE0
:103D8000054B00229A60044B07221A60002318009A
:103D9000BD4602B080BDC04610E000E080B584B0F2
:103DA00000AFB9607A600F217B18021C1A70BA68E4
:103DB0007B181B785BB211001800FFF75DFFC0464F
:103DC000BD4604B080BD80B582B000AF0200FB1DCF
:103DD0001A70FB1D1B785BB21800FFF733FFC0465B
:103DE000BD4602B080BD80B582B000AF78607B6810
:103DF0001800FFF7AFFF03001800BD4602B080BDFA
:103E000080B584B000AF78600F23FB1800221A70D1
:103E10007B6825229B5CDBB2022B08D07B680422E6
:103E2000DA637B68242200219954012324E07B6813
:103E30001B681A687B681B680E218A431A607B68BE
:103E40001B681A687B681B6801218A431A607B68BB
:103E50005B6C1C221A407B681B6C012191400A009C
:103E60005A607B682522012199547B682422002115
:103E700099540F23FB181B781800BD4604B080BD71
:103E800080B584B000AF78600F217B1800221A70D3
:103E90007B6825229B5CDBB2022B06D07B68042268
:103EA000DA637B1801221A702AE07B681B681A68A3
:103EB0007B681B680E218A431A607B681B681A683E
:103EC0007B681B6801218A431A607B685B6C1C223B
:103ED0001A407B681B6C012191400A005A607B6884
:103EE0002522012199547B682422002199547B6862
:103EF0009B6B002B04D07B689B6B7A681000984703
:103F00000F23FB181B781800BD4604B080BD0000CD
:103F100080B586B000AF7860396000237B610023F4
:103F2000FB6000233B6155E13B681B6801217A6916
:103F300091400A001340FB60FB68002B00D146E172
:103F40003B685B6803221340012B05D03B685B682C
:103F500003221340022B30D17B689B683B617B6955
:103F60005B0003229A401300DA433B6913403B6134
:103F70003B68DA687B695B009A4013003A69134337
:103F80003B617B683A699A607B685B683B610122B0
:103F90007B699A401300DA433B6913403B613B68FD
:103FA0005B681B0901221A407B699A4013003A6939
:103FB00013433B617B683A695A603B685B68032244
:103FC0001340032B17D07B68DB683B617B695B0088
:103FD00003229A401300DA433B6913403B613B687C
:103FE0009A687B695B009A4013003A6913433B610E
:103FF0007B683A69DA603B685B6803221340022BF6
:1040000023D17B69DA087B6808329200D3583B6180
:104010007B69072213409B000F229A401300DA436A
:104020003B6913403B613B681A697B6907210B4080
:104030009B009A4013003A6913433B617B69DA089D
:104040007B68083292003969D1507B681B683B61FC
:104050007B695B0003229A401300DA433B691340FB
:104060003B613B685B6803221A407B695B009A40B6
:1040700013003A6913433B617B683A691A603B68F5
:104080005A68C0239B02134000D1A0E0574B5A6BE3
:10409000564B01210A435A63554A7B699B080233F8
:1040A0009B009B583B617B69032213409B000F22BE
:1040B0009A401300DA433B6913403B617A68A023BE
:1040C000DB059A421FD07B684A4A934219D07B682D
:1040D000494A934213D07B68484A93420DD07B688B
:1040E000474A934207D07B68464A934201D1052351
:1040F0000AE0062308E0042306E0032304E0022389
:1041000002E0012300E000237A6903210A409200C3
:1041100093403A6913433B6135497B699B080233FD
:104120009B003A695A50384B1B683B61FB68DA4385
:104130003B6913403B613B685A6880235B02134034
:1041400003D03A69FB6813433B612F4B3A691A600D
:104150002D4B5B683B61FB68DA433B6913403B6175
:104160003B685A6880239B02134003D03A69FB687E
:1041700013433B61244B3A695A60234B9B683B6174
:10418000FB68DA433B6913403B613B685A68802314
:104190005B03134003D03A69FB6813433B611A4B3E
:1041A0003A699A60184BDB683B61FB68DA433B690C
:1041B00013403B613B685A6880239B03134003D044
:1041C0003A69FB6813433B610F4B3A69DA607B69DC
:1041D00001337B613B681A687B69DA40131E00D0AB
:1041E000A2E6C046C046BD4606B080BD00100240F3
:1041F000000001400004005000080050000C005076
:1042000000100050001C00500004014080B582B036
:1042100000AF786008001100BB1C021C1A807B1CD8
:104220000A1C1A707B1C1B78002B04D0BB1C1A883C
:104230007B689A6103E0BB1C1A887B689A62C0465F
:10424000BD4602B080BD000080B582B000AF020064
:10425000BB1D1A80094B5B69BA1D1288134008D038
:10426000064BBA1D12885A61BB1D1B881800FCF74B
:10427000E3FEC046BD4602B080BDC046000401401A
:1042800080B500AF044B1A68034B802149000A43F4
:104290001A60C046BD4680BD0070004080B586B043
:1042A00000AF78600A00FB1C1A7000237B61254B6D
:1042B0001A6880239B0013403B61234B1B6A012239
:1042C0001340FB603B69002B08D0FB68002B05D036
:1042D0001C4B1A681B4B1D490A401A60194B1B687E
:1042E0007B617B69032293437B617A697B6813431B
:1042F0007B61144B7A691A60154B1A69144B0421BF
:104300000A431A61FB1C1B78012B01D130BF02E06C
:1043100040BF20BF20BF0E4B1A690D4B04218A43BA
:104320001A613B69002B09D0FB68002B06D0054BB6
:104330001A68044B802189000A431A60C046BD46B2
:1043400006B080BD0070004000000140FFFDFFFF8F
:1043500000ED00E0B0B58AB000AF78607B68002B5C
:1043600002D1012300F0BFFBC94BDB680C221340D4
:10437000FB61C74BDA6880235B021340BB617B683B
:104380001B680122134000D17EE0FB69082B07D097
:10439000FB690C2B12D1BA6980235B029A420DD1C2
:1043A000BB4B1A6880239B02134000D16BE07B68F3
:1043B0005B68002B67D1012300F095FB7B685A688E
:1043C00080235B029A4207D1B14B1A68B04B80211F
:1043D00049020A431A6027E07B685A68A023DB027F
:1043E0009A420ED1AA4B1A68A94B8021C9020A43EE
:1043F0001A60A74B1A68A64B802149020A431A602B
:1044000012E0A34B1A68A24BA2490A401A60A04BC3
:104410001A6880235B021340FB60FB689C4B1A68A0
:104420009B4B9D490A401A607B685B68002B15D046
:10443000FEF7F2FF03007B6109E0FEF7EDFF0200EB
:104440007B69D31A642B02D9032300F04CFB904BF9
:104450001A6880239B021340EFD015E0FEF7DCFFC3
:1044600003007B6108E0FEF7D7FF02007B69D31AE7
:10447000642B01D9032336E3854B1A6880239B0202
:104480001340F0D100E0C0467B681B680222134055
:1044900000D199E07B68DB687B627B6A2022134055
:1044A00009D07B4B1A687A4B20210A431A607B6A39
:1044B000202293437B62FB69042B05D0FB690C2B04
:1044C0003ED1BB69002B3BD1714B1B6804221340CA
:1044D00004D07B6A002B01D1012304E36C4B5B68A1
:1044E0006E4A134019007B681B691A02684B0A4325
:1044F0005A60674B1B68092293431900644B7A6A20
:104500000A431A6000F042FC0100614BDB681B09A2
:104510000F221340624AD35C0A00DA40614B1A60F2
:10452000614B1B6813257C191800FEF72FFF030051
:1045300023707B191B78002B46D07B191B78D2E2A5
:104540007B6A002B27D0524B1B680922934319002A
:104550004F4B7A6A0A431A60FEF75EFF03007B61E5
:1045600008E0FEF759FF02007B69D31A022B01D93C
:104570000323B8E2464B1B6804221340F1D0444B9E
:104580005B68464A134019007B681B691A02404B5E
:104590000A435A6018E03E4B1A683D4B01218A439A
:1045A0001A60FEF739FF03007B6108E0FEF734FF75
:1045B00002007B69D31A022B01D9032393E2344B07
:1045C0001B6804221340F1D17B681B681022134042
:1045D00000D1A2E0FB69002B40D12D4B1A6880234B
:1045E0009B00134005D07B68DB69002B01D10123C0
:1045F00079E2274B5B682D4A134019007B685A6AA1
:10460000234B0A435A60224B5B681B02190A7B68E2
:104610001B6A1A061E4B0A435A607B685B6A5B0B77
:104620000133802212029A40194BDB681B090F21CB
:104630000B401B49CB5CDA401A4B1A601A4B1B68C3
:1046400013257C191800FEF7A1FE030023707B19C7
:104650001B78002B61D07B191B7844E27B68DB69F7
:10466000002B40D00A4B1A68094B802149000A43AD
:104670001A60FEF7D1FE03007B6119E0FEF7CCFE65
:1046800002007B69D31A022B12D903232BE2C04606
:1046900000100240FFFFFEFFFFFFFBFFFFE0FFFFF8
:1046A000BC7F00080000002004000020FF1FFFFF67
:1046B000CA4B1A6880239B001340DFD0C74B5B684E
:1046C000C74A134019007B685A6AC44B0A435A60B0
:1046D000C24B5B681B02190A7B681B6A1A06BF4B38
:1046E0000A435A6019E0BD4B1A68BC4BBD490A40E9
:1046F0001A60FEF791FE03007B6108E0FEF78CFE76
:1047000002007B69D31A022B01D90323EBE1B34BDF
:104710001A6880239B001340F0D17B681B68082235
:10472000134036D07B685B69002B19D0AB4B1A6DF8
:10473000AA4B01210A431A65FEF76EFE03007B6156
:1047400008E0FEF769FE02007B69D31A022B01D94B
:104750000323C8E1A14B1B6D02221340F1D018E0E6
:104760009E4B1A6D9D4B01218A431A65FEF754FE3C
:1047700003007B6108E0FEF74FFE02007B69D31A5D
:10478000022B01D90323AEE1944B1B6D022213408F
:10479000F1D17B681B680422134000D1AEE02320D6
:1047A0003B1800221A708D4B9A6B80235B051340D7
:1047B00009D18A4B9A6B894B802149050A439A6338
:1047C0003B1801221A70884B1A6880235B00134043
:1047D0001AD1854B1A68844B802149000A431A601C
:1047E000FEF71AFE03007B6108E0FEF715FE0200EB
:1047F0007B69D31A642B01D9032374E17A4B1A68BD
:1048000080235B001340F0D07B689A6880235B00B4
:104810009A4207D1714B1A6D704B802149000A43AF
:104820001A6531E07B689B68002B0CD16B4B1A6DCD
:104830006A4B6C490A401A65684B1A6D674B6B49A5
:104840000A401A6520E07B689A68A023DB009A4240
:104850000ED1624B1A6D614B8021C9000A431A6563
:104860005E4B1A6D5D4B802149000A431A650BE0CF
:104870005A4B1A6D594B5B490A401A65574B1A6DD2
:10488000564B5A490A401A657B689B68002B15D025
:10489000FEF7C2FD03007B6109E0FEF7BDFD0200EB
:1048A0007B69D31A524A934201D903231BE14B4B34
:1048B0001A6D80239B001340EFD014E0FEF7ACFD8F
:1048C00003007B6109E0FEF7A7FD02007B69D31AB4
:1048D000474A934201D9032305E1404B1A6D8023D7
:1048E0009B001340EFD12323FB181B78012B05D12C
:1048F0003A4B9A6B394B3F490A409A637B681B6875
:104900002022134049D07B689B69002B26D0334B73
:104910009A68324B01210A439A60304B5A6B2F4BF5
:1049200001210A435A63344B1A6A334B80218901AF
:104930000A431A62FEF770FD03007B6108E0FEF790
:104940006BFD02007B69D31A022B01D90323CAE055
:10495000224B9B6802221340F1D01EE01F4B9A6845
:104960001E4B01218A439A60234B1A6A224B23492A
:104970000A401A62FEF750FD03007B6108E0FEF773
:104980004BFD02007B69D31A022B01D90323AAE055
:10499000124B9B6802221340F1D17B689B6A002B6B
:1049A00000D19FE0FB690C2B00D178E07B689B6A0B
:1049B000022B59D1094B1A68084B11490A401A6059
:1049C000FEF72AFD03007B611CE0FEF725FD0200D7
:1049D0007B69D31A022B15D9032384E0001002400F
:1049E000FF1FFFFFFFFEFFFF00700040FFFBFFFF08
:1049F00088130000FFFFFFEF00000140FFDFFFFF13
:104A0000FFFFFFFE3A4B1A6880239B041340DCD162
:104A1000374BDB68374A134019007B68DA6A7B68DA
:104A20001B6B1A437B685B6B1A43314B0A43DA609A
:104A30002F4B1A682E4B802149040A431A60FEF757
:104A4000EBFC03007B6108E0FEF7E6FC02007B69FB
:104A5000D31A022B01D9032345E0254B1A68802382
:104A60009B041340F0D03DE0214B1A68204B2249B3
:104A70000A401A60FEF7D0FC03007B6108E0FEF7F5
:104A8000CBFC02007B69D31A022B01D903232AE055
:104A9000174B1A6880239B041340F0D122E07B68F7
:104AA0009B6A012B01D101231DE0114BDB68BB6127
:104AB000BA6980235B021A407B68DB6A9A420FD195
:104AC000BA69F0239B031A407B681B6B9A4207D19B
:104AD000BA69C0231B041A407B685B6B9A4201D001
:104AE000012300E000231800BD460AB0B0BDC04657
:104AF00000100240FFFF02FFFFFFFFFEB0B584B0D1
:104B000000AF786039607B68002B01D1012328E178
:104B1000964B1B68012213403A689A421ED9934B68
:104B20001B68012293431900904B3A680A431A60AC
:104B3000FEF772FC0300FB6009E0FEF76DFC02006B
:104B4000FB68D31A8A4A934201D9032309E1874BB0
:104B50001B68012213403A689A42EED17B681B68B9
:104B60000222134009D0834BDB68F02293431900E3
:104B70007B689A687F4B0A43DA607B681B68012276
:104B8000134000D189E07B685B68022B07D1794B29
:104B90001A6880239B02134020D10123E1E07B6847
:104BA0005B68032B07D1734B1A6880239B04134067
:104BB00014D10123D5E07B685B68012B06D16D4BD6
:104BC0001B680422134009D10123CAE0694B1A680B
:104BD00080239B00134001D10123C2E0654BDB68B9
:104BE0000322934319007B685A68624B0A43DA60D8
:104BF000FEF712FC0300FB607B685B68022B11D19F
:104C000009E0FEF709FC0200FB68D31A584A9342F8
:104C100001D90323A5E0574BDB680C221340082B76
:104C2000EFD13AE07B685B68032B11D109E0FEF716
:104C3000F3FB0200FB68D31A4D4A934201D90323C8
:104C40008FE04C4BDB680C2213400C2BEFD124E09F
:104C50007B685B68012B1BD109E0FEF7DDFB0200DE
:104C6000FB68D31A424A934201D9032379E0414BAE
:104C7000DB680C221340042BEFD10EE0FEF7CCFBD7
:104C80000200FB68D31A3A4A934201D9032368E031
:104C9000384BDB680C221340F0D1344B1B680122E7
:104CA00013403A689A421ED2304B1B68012293434C
:104CB00019002E4B3A680A431A60FEF7ADFB030059
:104CC000FB6009E0FEF7A8FB0200FB68D31A284A44
:104CD000934201D9032344E0244B1B680122134073
:104CE0003A689A42EED17B681B680422134009D0CF
:104CF000204BDB68204A134019007B68DA681D4BA3
:104D00000A43DA607B681B68082213400AD0194BFB
:104D1000DB681A4A134019007B681B69DA00154BDF
:104D20000A43DA6000F032F80100124BDB681B091D
:104D30000F221340124AD35C0A00DA40114B1A606A
:104D4000114B1B680B257C191800FEF71FFB030095
:104D500023707B191B78002B02D07B191B7800E095
:104D600000231800BD4604B0B0BDC046002002407C
:104D70008813000000100240FFF8FFFFFFC7FFFF8D
:104D8000BC7F00080000002004000020B0B58EB0F9
:104D900000AF4C4BDB68FB62FA6A0C2313400C2B10
:104DA00014D000D97BE0042B02D0082B0BD076E086
:104DB000444B1B681022134002D0434B3B637CE002
:104DC000424B3B6379E0424B3B6376E0FB6A9A0CD3
:104DD0000F231A403F4B9B5CBB62FB6A9A0D032377
:104DE000134001337B62374BDA6880235B02134048
:104DF0001AD0BB6ABB610023FB61354A0023B86946
:104E0000F969FBF721FB02000B00100019007B6A17
:104E10003B6100237B613A697B69FBF7F5FA02008D
:104E20000B0013007B6337E0264B1B6810221340F6
:104E30001AD0BB6ABB600023FB60234A0023B8681A
:104E4000F968FBF701FB02000B00100019007B6AF8
:104E50003B6000237B603A687B68FBF7D5FA020071
:104E60000B0013007B6317E0BB6A180000231900D6
:104E7000164A0023FBF7E8FA02000B0010001900A5
:104E80007B6A1C0000231D0022002B00FBF7BCFAEC
:104E900002000B0013007B637B6B3B630DE0094B4F
:104EA0005B685B0B072213403B623B6A0133802245
:104EB00012029A4013003B63C0463B6B1800BD468C
:104EC0000EB0B0BD0010024000093D000024F40007
:104ED00000127A00D47F000880B500AF024B1B6837
:104EE0001800BD4680BDC0460000002080B500AF60
:104EF000FFF7F2FF0100064BDB681B0A0722134095
:104F0000044AD35CD9400B001800BD4680BDC046A2
:104F100000100240CC7F000880B500AFFFF7DCFF37
:104F20000100064BDB68DB0A07221340044AD35C0E
:104F3000D9400B001800BD4680BDC046001002409D
:104F4000CC7F000880B586B000AF786017203B1892
:104F500000221A707B681B682022134000D1C2E037
:104F6000984B9A6B80235B05134009D1954B9A6B44
:104F7000944B802149050A439A633B1801221A7019
:104F8000914B1A6880235B0013401AD18E4B1A682C
:104F90008D4B802149000A431A60FEF73DFA030059
:104FA0003B6108E0FEF738FA02003B69D31A642B34
:104FB00001D9032302E1844B1A6880235B0013406C
:104FC000F0D0804B1A68C0239B031340FB607B68C2
:104FD0005A68C0239B031340FA689A4213D07B6837
:104FE0005A68C0239B021A40C0239B029A420AD1EE
:104FF000744B1A6880239B021A4080239B029A42BA
:1050000001D10123DAE06F4B1A6DC0239B021340DC
:10501000FB60FB68002B3BD07B685A68C0239B0277
:105020001340FA689A4233D07B681B6820221340F1
:105030002ED0644B1B6D654A1340FB60614B1A6DAB
:10504000604B802109030A431A655E4B1A6D5D4B64
:105050005F490A401A655B4BFA681A65FA68802353
:105060005B00134014D0FEF7D7F903003B6109E061
:10507000FEF7D2F902003B69D31A564A934201D98E
:1050800003239BE04F4B1A6D80239B001340EFD00E
:105090007B685A68C0239B021A40C0239B029A4235
:1050A0000CD1484B1B684C4A134019007B685A6866
:1050B000C0239B031A40434B0A431A60414B196DAE
:1050C0007B685A68C0239B021A403E4B0A431A650C
:1050D0001723FB181B78012B05D13A4B9A6B394BE0
:1050E0003E490A409A637B681B680122134009D03D
:1050F000344BDB6C0322934319007B689A68314B75
:105100000A43DA647B681B680222134009D02D4BE6
:10511000DB6C0C22934319007B68DA68294B0A4345
:10512000DA647B681B680422134009D0254BDB6CD2
:105130002B4A134019007B681A69224B0A43DA6430
:105140007B681B680822134009D01E4BDB6C254A84
:10515000134019007B685A691A4B0A43DA647B686A
:105160001A6880235B00134009D0164BDB6C174A8A
:10517000134019007B689A69124B0A43DA647B6812
:105180001B684022134009D00E4BDB6C164A1340BB
:1051900019007B681A6A0B4B0A43DA647B681B6848
:1051A0008022134009D0074BDB6C104A13401900D2
:1051B0007B68DA69034B0A43DA6400231800BD46B2
:1051C00006B080BD0010024000700040FFFFFCFFF1
:1051D000FFFFF7FF88130000FFFFCFFFFFFFFFEF88
:1051E000FFF3FFFFFFCFFFFFFFFFFFFBFFFFF3FF1B
:1051F00080B582B000AF78607B68002B01D10123BD
:105200008EE07B6821229B5CDBB2002B07D17B68A0
:105210002022002199547B681800FDF74BFC7B6825
:105220002122022199547B681B68CA225A627B683A
:105230001B6853225A627B68180000F09EF8031E18
:1052400009D07B681B68FF225A627B6821220421F7
:105250009954012364E07B681B689A687B681B682B
:1052600031490A409A607B681B6899687B685A6874
:105270007B681B691A437B689B691A437B681B68C0
:105280000A439A607B681B687A68D2681A617B68F7
:105290001B6819697B689B681A047B681B680A4352
:1052A0001A617B681B68DA687B681B6880218A4307
:1052B000DA607B681B68DA6C7B681B6803218A43B1
:1052C000DA647B681B68D96C7B68DA697B685B6928
:1052D0001A437B681B680A43DA647B681B689B6817
:1052E0002022134013D17B68180000F01FF8031E22
:1052F0000DD07B681B68FF225A627B682122042143
:1053000099547B68202200219954012308E07B688E
:105310001B68FF225A627B682122012199540023D5
:105320001800BD4602B080BDBFFF8FFF80B584B0BE
:1053300000AF78607B681B68DA687B681B68A02117
:105340008A43DA60FEF768F80300FB600AE0FEF7C4
:1053500063F80200FB68D21AFA239B009A4201D933
:10536000032306E07B681B68DB6820221340EED035
:1053700000231800BD4604B080BD80B584B000AFE6
:1053800078607B681B68DB68402213401AD17B6819
:105390001B6801225242DA60FEF73EF80300FB6010
:1053A0000AE0FEF739F80200FB68D21AFA239B00E4
:1053B0009A4201D9032306E07B681B68DB68402220
:1053C0001340EED000231800BD4604B080BD00009D
:1053D00080B586B000AFF860B9607A60FB682022C3
:1053E0009B5C012B01D10223ADE0FB68202201214F
:1053F0009954FB68212202219954FB681B68CA2238
:105400005A62FB681B6853225A62FB681B689A68E1
:105410008023DB00134021D0FDF7FEFF03007B61FA
:1054200016E0FDF7F9FF02007B69D21AFA239B0010
:105430009A420DD9FB681B68FF225A62FB68212241
:1054400003219954FB6820220021995403237AE018
:10545000FB681B68DB6804221340E2D1FB681B6811
:105460009A68FB681B683A490A409A60FB681B68A7
:10547000DB68FF221A40FB681B6836490A43DA6082
:10548000FDF7CAFF03007B6116E0FDF7C5FF0200D0
:105490007B69D21AFA239B009A420DD9FB681B68DC
:1054A000FF225A62FB68212203219954FB682022C3
:1054B00000219954032346E0FB681B68DB68042243
:1054C0001340E2D0FB681B68BA685A61FB681B682E
:1054D0009A68FB681B6807218A439A60FB681B680F
:1054E0009968FB681B687A680A439A601A4B1A68C5
:1054F000194B802149030A431A60174B9A68164BCF
:10550000802149030A439A60FB681B689A68FB681C
:105510001B688021C9010A439A60FB681B689A686E
:10552000FB681B688021C9000A439A60FB681B68FE
:10553000FF225A62FB68212201219954FB68202234
:105540000021995400231800BD4606B080BDC04616
:10555000FFFBFFFF7FFBFFFF0004014080B582B02F
:1055600000AF78607B681B68DA688023DB0013403B
:105570000DD07B681800FDF7BDFA7B681B68DB68FF
:10558000FF221A407B681B6807490A43DA60074B11
:10559000802252035A617B68212201219954C0461E
:1055A000BD4602B080BDC0467FFBFFFF0004014046
:1055B00080B582B000AF78607B68002B01D10123F9
:1055C00032E07B6839229B5CDBB2002B07D17B6821
:1055D0003822002199547B681800FDF797FB7B68FF
:1055E0003922022199547B681A687B6804331900B8
:1055F000100000F03BF97B683E22012199547B6842
:105600003A22012199547B683B22012199547B68FD
:105610003C22012199547B683D22012199547B68E9
:1056200039220121995400231800BD4602B080BDE3
:1056300080B584B000AF78607B6839229B5CDBB2B8
:10564000012B01D0012333E07B68392202219954D8
:105650007B681A688023DB059A420ED07B681B6842
:10566000154A934209D07B681B68144A934204D0C0
:105670007B681B68124A934211D17B681B689B6848
:1056800007221340FB60FB68062B10D07B681B6869
:105690001A687B681B6801210A431A6007E07B686F
:1056A0001B681A687B681B6801210A431A60002383
:1056B0001800BD4604B080BD000400400008014051
:1056C0000014014080B584B000AF786039600F23CA
:1056D000FB1800221A707B6838229B5C012B01D1D9
:1056E0000223BCE07B683822012199547B6839226F
:1056F000022199547B681B689B68BB60BB6877225A
:105700009343BB60BB68584A1340BB607B681B680F
:10571000BA689A603B681B6880229201934240D02D
:1057200080229201934200D988E080225201934264
:1057300000D188E080225201934200D97EE0702B94
:1057400018D000D97AE0602B4FD000D976E0502BEA
:105750003BD000D972E0402B57D000D96EE0302BFF
:1057600063D06BD8202B60D068D8002B5DD0102B75
:105770005BD063E07B6818683B6899683B685A684F
:105780003B68DB6800F04AF97B681B689B68BB607C
:10579000BB6877221343BB607B681B68BA689A605A
:1057A00052E07B6818683B6899683B685A683B68B8
:1057B000DB6800F033F97B681B689A687B681B68BC
:1057C0008021C9010A439A603EE07B6818683B6803
:1057D00059683B68DB681A0000F0A6F87B681B6814
:1057E0005021180000F000F92EE07B6818683B6833
:1057F00059683B68DB681A0000F0C4F87B681B68D6
:105800006021180000F0F0F81EE07B6818683B6823
:1058100059683B68DB681A0000F086F87B681B68F3
:105820004021180000F0E0F80EE07B681A683B6841
:105830001B681900100000F0D7F805E00F23FB18D3
:1058400001221A7000E0C0467B6839220121995478
:105850007B683822002199540F23FB181B7818000D
:10586000BD4604B080BDC046FF00FFFF80B584B0D8
:1058700000AF786039607B681B68FB607A688023C2
:10588000DB059A420BD07B68234A934207D07B68A2
:10589000224A934203D07B68214A934208D1FB6895
:1058A00070229343FB603B685B68FA681343FB60BC
:1058B0007A688023DB059A420BD07B68164A9342B4
:1058C00007D07B68154A934203D07B68144A934201
:1058D00008D1FB68134A1340FB603B68DB68FA6839
:1058E0001343FB60FB68802293431A003B681B69EB
:1058F0001343FB607B68FA681A603B689A687B68B0
:10590000DA623B681A687B689A627B6801225A6196
:10591000C046BD4604B080BD000400400008014000
:1059200000140140FFFCFFFF80B586B000AFF860B7
:10593000B9607A60FB681B6A7B61FB681B6A0122A5
:1059400093431A00FB681A62FB689B693B613B69E1
:10595000F02293433B617B681B013A6913433B612F
:105960007B690A2293437B617A69BB6813437B613D
:10597000FB683A699A61FB687A691A62C046BD465B
:1059800006B080BD80B586B000AFF860B9607A60BF
:10599000FB681B6A102293431A00FB681A62FB68BB
:1059A0009B697B61FB681B6A3B617B690D4A134005
:1059B0007B617B681B037A6913437B613B69A0228F
:1059C00093433B61BB681B013A6913433B61FB682E
:1059D0007A699A61FB683A691A62C046BD4606B0A8
:1059E00080BDC046FF0FFFFF80B584B000AF786078
:1059F00039607B689B68FB60FB6870229343FB60A7
:105A00003A68FB68134307221343FB607B68FA681C
:105A10009A60C046BD4604B080BD000080B586B027
:105A200000AFF860B9607A603B60FB689B687B619F
:105A30007B69094A13407B613B681A027B681A4301
:105A4000BB6813437A6913437B61FB687A699A6088
:105A5000C046BD4606B080BDFF00FFFF80B584B0E4
:105A600000AF786039607B6838229B5C012B01D1E4
:105A7000022347E07B683822012199547B68392250
:105A8000022199547B681B685B68FB607B681B681C
:105A90009B68BB60FB6870229343FB603B681B689C
:105AA000FA681343FB607B681B68FA685A607B687E
:105AB0001A688023DB059A420ED07B681B68134A64
:105AC000934209D07B681B68114A934204D07B68DB
:105AD0001B68104A93420CD1BB6880229343BB6081
